{"contracts/MarshaPlus.sol":{"MarshaToken":{"abi":[{"inputs":[{"internalType":"address","name":"_community","type":"address"},{"internalType":"address","name":"_charity","type":"address"},{"internalType":"address","name":"_foundation","type":"address"},{"internalType":"address","name":"_development","type":"address"},{"internalType":"address","name":"_marketing","type":"address"},{"internalType":"address","name":"_investors","type":"address"},{"internalType":"address","name":"_legal","type":"address"},{"internalType":"address","name":"_expansion","type":"address"}],"stateMutability":"nonpayable","type":"constructor"},{"anonymous":false,"inputs":[{"indexed":true,"internalType":"address","name":"owner","type":"address"},{"indexed":true,"internalType":"address","name":"spender","type":"address"},{"indexed":false,"internalType":"uint256","name":"value","type":"uint256"}],"name":"Approval","type":"event"},{"anonymous":false,"inputs":[{"indexed":true,"internalType":"address","name":"from","type":"address"},{"indexed":true,"internalType":"address","name":"to","type":"address"},{"indexed":false,"internalType":"uint256","name":"value","type":"uint256"}],"name":"Transfer","type":"event"},{"inputs":[],"name":"ANNUAL_BURN_RATE","outputs":[{"internalType":"uint256","name":"","type":"uint256"}],"stateMutability":"view","type":"function"},{"inputs":[],"name":"INITIAL_SUPPLY","outputs":[{"internalType":"uint256","name":"","type":"uint256"}],"stateMutability":"view","type":"function"},{"inputs":[{"internalType":"address","name":"owner","type":"address"},{"internalType":"address","name":"spender","type":"address"}],"name":"allowance","outputs":[{"internalType":"uint256","name":"","type":"uint256"}],"stateMutability":"view","type":"function"},{"inputs":[{"internalType":"address","name":"spender","type":"address"},{"internalType":"uint256","name":"amount","type":"uint256"}],"name":"approve","outputs":[{"internalType":"bool","name":"","type":"bool"}],"stateMutability":"nonpayable","type":"function"},{"inputs":[{"internalType":"address","name":"account","type":"address"}],"name":"balanceOf","outputs":[{"internalType":"uint256","name":"","type":"uint256"}],"stateMutability":"view","type":"function"},{"inputs":[],"name":"burnIfNeeded","outputs":[],"stateMutability":"nonpayable","type":"function"},{"inputs":[],"name":"charity","outputs":[{"internalType":"address","name":"","type":"address"}],"stateMutability":"view","type":"function"},{"inputs":[],"name":"community","outputs":[{"internalType":"address","name":"","type":"address"}],"stateMutability":"view","type":"function"},{"inputs":[],"name":"decimals","outputs":[{"internalType":"uint8","name":"","type":"uint8"}],"stateMutability":"view","type":"function"},{"inputs":[{"internalType":"address","name":"spender","type":"address"},{"internalType":"uint256","name":"subtractedValue","type":"uint256"}],"name":"decreaseAllowance","outputs":[{"internalType":"bool","name":"","type":"bool"}],"stateMutability":"nonpayable","type":"function"},{"inputs":[],"name":"development","outputs":[{"internalType":"address","name":"","type":"address"}],"stateMutability":"view","type":"function"},{"inputs":[],"name":"expansion","outputs":[{"internalType":"address","name":"","type":"address"}],"stateMutability":"view","type":"function"},{"inputs":[],"name":"foundation","outputs":[{"internalType":"address","name":"","type":"address"}],"stateMutability":"view","type":"function"},{"inputs":[],"name":"halfCommunityInitialTokens","outputs":[{"internalType":"uint256","name":"","type":"uint256"}],"stateMutability":"view","type":"function"},{"inputs":[{"internalType":"address","name":"spender","type":"address"},{"internalType":"uint256","name":"addedValue","type":"uint256"}],"name":"increaseAllowance","outputs":[{"internalType":"bool","name":"","type":"bool"}],"stateMutability":"nonpayable","type":"function"},{"inputs":[],"name":"investors","outputs":[{"internalType":"address","name":"","type":"address"}],"stateMutability":"view","type":"function"},{"inputs":[],"name":"lastBurnTimestamp","outputs":[{"internalType":"uint256","name":"","type":"uint256"}],"stateMutability":"view","type":"function"},{"inputs":[],"name":"legal","outputs":[{"internalType":"address","name":"","type":"address"}],"stateMutability":"view","type":"function"},{"inputs":[],"name":"marketing","outputs":[{"internalType":"address","name":"","type":"address"}],"stateMutability":"view","type":"function"},{"inputs":[],"name":"name","outputs":[{"internalType":"string","name":"","type":"string"}],"stateMutability":"view","type":"function"},{"inputs":[],"name":"symbol","outputs":[{"internalType":"string","name":"","type":"string"}],"stateMutability":"view","type":"function"},{"inputs":[],"name":"teamRewardAfter3Years","outputs":[],"stateMutability":"nonpayable","type":"function"},{"inputs":[],"name":"timeOfContractCreation","outputs":[{"internalType":"uint256","name":"","type":"uint256"}],"stateMutability":"view","type":"function"},{"inputs":[],"name":"totalSupply","outputs":[{"internalType":"uint256","name":"","type":"uint256"}],"stateMutability":"view","type":"function"},{"inputs":[{"internalType":"address","name":"to","type":"address"},{"internalType":"uint256","name":"amount","type":"uint256"}],"name":"transfer","outputs":[{"internalType":"bool","name":"","type":"bool"}],"stateMutability":"nonpayable","type":"function"},{"inputs":[{"internalType":"address","name":"from","type":"address"},{"internalType":"address","name":"to","type":"address"},{"internalType":"uint256","name":"amount","type":"uint256"}],"name":"transferFrom","outputs":[{"internalType":"bool","name":"","type":"bool"}],"stateMutability":"nonpayable","type":"function"}],"evm":{"bytecode":{"linkReferences":{},"object":"6101a06040523480156200001257600080fd5b506040516200370038038062003700833981810160405281019062000038919062000f3c565b6040518060400160405280600781526020017f4d41525348412b000000000000000000000000000000000000000000000000008152506040518060400160405280600381526020017f4d534100000000000000000000000000000000000000000000000000000000008152508160039081620000b591906200127f565b508060049081620000c791906200127f565b505050620000e6675614c1734d3f72ae60c01b62000a7f60201b60201c565b6200010267d5883e1716be35fd60c01b62000a7f60201b60201c565b6200011e67d091d273ccfbc94560c01b62000a7f60201b60201c565b6200013a67486ed15d5781869b60c01b62000a7f60201b60201c565b600073ffffffffffffffffffffffffffffffffffffffff168873ffffffffffffffffffffffffffffffffffffffff1614158015620001a55750600073ffffffffffffffffffffffffffffffffffffffff168773ffffffffffffffffffffffffffffffffffffffff1614155b8015620001df5750600073ffffffffffffffffffffffffffffffffffffffff168673ffffffffffffffffffffffffffffffffffffffff1614155b8015620002195750600073ffffffffffffffffffffffffffffffffffffffff168573ffffffffffffffffffffffffffffffffffffffff1614155b8015620002535750600073ffffffffffffffffffffffffffffffffffffffff168473ffffffffffffffffffffffffffffffffffffffff1614155b80156200028d5750600073ffffffffffffffffffffffffffffffffffffffff168373ffffffffffffffffffffffffffffffffffffffff1614155b8015620002c75750600073ffffffffffffffffffffffffffffffffffffffff168273ffffffffffffffffffffffffffffffffffffffff1614155b8015620003015750600073ffffffffffffffffffffffffffffffffffffffff168173ffffffffffffffffffffffffffffffffffffffff1614155b62000343576040517f08c379a00000000000000000000000000000000000000000000000000000000081526004016200033a90620013c7565b60405180910390fd5b6200035f671a2cfedb048650a460c01b62000a7f60201b60201c565b6200037b677107fe1aa26a01d860c01b62000a7f60201b60201c565b8773ffffffffffffffffffffffffffffffffffffffff1660808173ffffffffffffffffffffffffffffffffffffffff1681525050620003cb677e370915c3d679c360c01b62000a7f60201b60201c565b8673ffffffffffffffffffffffffffffffffffffffff1660a08173ffffffffffffffffffffffffffffffffffffffff16815250506200041b6779cb13da2f5df23560c01b62000a7f60201b60201c565b8573ffffffffffffffffffffffffffffffffffffffff1660c08173ffffffffffffffffffffffffffffffffffffffff16815250506200046b67f957b8099616b12660c01b62000a7f60201b60201c565b8473ffffffffffffffffffffffffffffffffffffffff1660e08173ffffffffffffffffffffffffffffffffffffffff1681525050620004bb67e581530b49a272fe60c01b62000a7f60201b60201c565b8373ffffffffffffffffffffffffffffffffffffffff166101008173ffffffffffffffffffffffffffffffffffffffff16815250506200050c67fc241fd399891ff760c01b62000a7f60201b60201c565b8273ffffffffffffffffffffffffffffffffffffffff166101208173ffffffffffffffffffffffffffffffffffffffff16815250506200055d678e157fe651893d5c60c01b62000a7f60201b60201c565b8173ffffffffffffffffffffffffffffffffffffffff166101408173ffffffffffffffffffffffffffffffffffffffff1681525050620005ae67065c07c554a7d5cb60c01b62000a7f60201b60201c565b8073ffffffffffffffffffffffffffffffffffffffff166101608173ffffffffffffffffffffffffffffffffffffffff1681525050620005ff6702729d91e7d8d2a760c01b62000a7f60201b60201c565b426005819055506200062267199e8d50d124691860c01b62000a7f60201b60201c565b42600681905550620006456777c7b67572cc20ff60c01b62000a7f60201b60201c565b62000661679cbeac42f19fd73260c01b62000a7f60201b60201c565b6200067f306b19d971e4fe8401e74000000062000a8260201b60201c565b6200069b67e5625c1943e14b7b60c01b62000a7f60201b60201c565b620006b7676391def439d1d20160c01b62000a7f60201b60201c565b620006f430608051606460236b19d971e4fe8401e740000000620006dc919062001418565b620006e8919062001492565b62000bef60201b60201c565b620007106790f2b4a1c54b3ae160c01b62000a7f60201b60201c565b60026200072560805162000e8060201b60201c565b62000731919062001492565b610180818152505062000755678ee9e1c9ca813a8260c01b62000a7f60201b60201c565b6200077167d55de28b7f04a31560c01b62000a7f60201b60201c565b620007ae3060a051606460056b19d971e4fe8401e74000000062000796919062001418565b620007a2919062001492565b62000bef60201b60201c565b620007ca67d87c8d0e628553fe60c01b62000a7f60201b60201c565b620007e6679d92592e34820afb60c01b62000a7f60201b60201c565b620008233060c051606460056b19d971e4fe8401e7400000006200080b919062001418565b62000817919062001492565b62000bef60201b60201c565b6200083f6733dcfac452faf20460c01b62000a7f60201b60201c565b6200085b67cb3963a7006d500b60c01b62000a7f60201b60201c565b620008983060e051606460056b19d971e4fe8401e74000000062000880919062001418565b6200088c919062001492565b62000bef60201b60201c565b620008b4675d3a46746539f57a60c01b62000a7f60201b60201c565b620008d06704ddd4571e16769a60c01b62000a7f60201b60201c565b6200090e3061010051606460056b19d971e4fe8401e740000000620008f6919062001418565b62000902919062001492565b62000bef60201b60201c565b6200092a673cf3ffddec18afcd60c01b62000a7f60201b60201c565b6200094667d016e7f13e1b758d60c01b62000a7f60201b60201c565b620009843061012051606460056b19d971e4fe8401e7400000006200096c919062001418565b62000978919062001492565b62000bef60201b60201c565b620009a0678fd489cddc1f687060c01b62000a7f60201b60201c565b620009bc67a1350c89de44025160c01b62000a7f60201b60201c565b620009fb30610140516103e860196b19d971e4fe8401e740000000620009e3919062001418565b620009ef919062001492565b62000bef60201b60201c565b62000a1767dd6a0efdcfdec68160c01b62000a7f60201b60201c565b62000a3367a3b286e3639717aa60c01b62000a7f60201b60201c565b62000a713061016051606460016b19d971e4fe8401e74000000062000a59919062001418565b62000a65919062001492565b62000bef60201b60201c565b50505050505050506200176d565b50565b600073ffffffffffffffffffffffffffffffffffffffff168273ffffffffffffffffffffffffffffffffffffffff160362000af4576040517f08c379a000000000000000000000000000000000000000000000000000000000815260040162000aeb906200151a565b60405180910390fd5b62000b086000838362000ec860201b60201c565b806002600082825462000b1c91906200153c565b92505081905550806000808473ffffffffffffffffffffffffffffffffffffffff1673ffffffffffffffffffffffffffffffffffffffff168152602001908152602001600020600082825401925050819055508173ffffffffffffffffffffffffffffffffffffffff16600073ffffffffffffffffffffffffffffffffffffffff167fddf252ad1be2c89b69c2b068fc378daa952ba7f163c4a11628f55a4df523b3ef8360405162000bcf919062001588565b60405180910390a362000beb6000838362000ecd60201b60201c565b5050565b600073ffffffffffffffffffffffffffffffffffffffff168373ffffffffffffffffffffffffffffffffffffffff160362000c61576040517f08c379a000000000000000000000000000000000000000000000000000000000815260040162000c58906200161b565b60405180910390fd5b600073ffffffffffffffffffffffffffffffffffffffff168273ffffffffffffffffffffffffffffffffffffffff160362000cd3576040517f08c379a000000000000000000000000000000000000000000000000000000000815260040162000cca90620016b3565b60405180910390fd5b62000ce683838362000ec860201b60201c565b60008060008573ffffffffffffffffffffffffffffffffffffffff1673ffffffffffffffffffffffffffffffffffffffff1681526020019081526020016000205490508181101562000d6f576040517f08c379a000000000000000000000000000000000000000000000000000000000815260040162000d66906200174b565b60405180910390fd5b8181036000808673ffffffffffffffffffffffffffffffffffffffff1673ffffffffffffffffffffffffffffffffffffffff16815260200190815260200160002081905550816000808573ffffffffffffffffffffffffffffffffffffffff1673ffffffffffffffffffffffffffffffffffffffff168152602001908152602001600020600082825401925050819055508273ffffffffffffffffffffffffffffffffffffffff168473ffffffffffffffffffffffffffffffffffffffff167fddf252ad1be2c89b69c2b068fc378daa952ba7f163c4a11628f55a4df523b3ef8460405162000e5f919062001588565b60405180910390a362000e7a84848462000ecd60201b60201c565b50505050565b60008060008373ffffffffffffffffffffffffffffffffffffffff1673ffffffffffffffffffffffffffffffffffffffff168152602001908152602001600020549050919050565b505050565b505050565b600080fd5b600073ffffffffffffffffffffffffffffffffffffffff82169050919050565b600062000f048262000ed7565b9050919050565b62000f168162000ef7565b811462000f2257600080fd5b50565b60008151905062000f368162000f0b565b92915050565b600080600080600080600080610100898b03121562000f605762000f5f62000ed2565b5b600062000f708b828c0162000f25565b985050602062000f838b828c0162000f25565b975050604062000f968b828c0162000f25565b965050606062000fa98b828c0162000f25565b955050608062000fbc8b828c0162000f25565b94505060a062000fcf8b828c0162000f25565b93505060c062000fe28b828c0162000f25565b92505060e062000ff58b828c0162000f25565b9150509295985092959890939650565b600081519050919050565b7f4e487b7100000000000000000000000000000000000000000000000000000000600052604160045260246000fd5b7f4e487b7100000000000000000000000000000000000000000000000000000000600052602260045260246000fd5b600060028204905060018216806200108757607f821691505b6020821081036200109d576200109c6200103f565b5b50919050565b60008190508160005260206000209050919050565b60006020601f8301049050919050565b600082821b905092915050565b600060088302620011077fffffffffffffffffffffffffffffffffffffffffffffffffffffffffffffffff82620010c8565b620011138683620010c8565b95508019841693508086168417925050509392505050565b6000819050919050565b6000819050919050565b6000620011606200115a62001154846200112b565b62001135565b6200112b565b9050919050565b6000819050919050565b6200117c836200113f565b620011946200118b8262001167565b848454620010d5565b825550505050565b600090565b620011ab6200119c565b620011b881848462001171565b505050565b5b81811015620011e057620011d4600082620011a1565b600181019050620011be565b5050565b601f8211156200122f57620011f981620010a3565b6200120484620010b8565b8101602085101562001214578190505b6200122c6200122385620010b8565b830182620011bd565b50505b505050565b600082821c905092915050565b6000620012546000198460080262001234565b1980831691505092915050565b60006200126f838362001241565b9150826002028217905092915050565b6200128a8262001005565b67ffffffffffffffff811115620012a657620012a562001010565b5b620012b282546200106e565b620012bf828285620011e4565b600060209050601f831160018114620012f75760008415620012e2578287015190505b620012ee858262001261565b8655506200135e565b601f1984166200130786620010a3565b60005b8281101562001331578489015182556001820191506020850194506020810190506200130a565b868310156200135157848901516200134d601f89168262001241565b8355505b6001600288020188555050505b505050505050565b600082825260208201905092915050565b7f496e76616c696420616464726573730000000000000000000000000000000000600082015250565b6000620013af600f8362001366565b9150620013bc8262001377565b602082019050919050565b60006020820190508181036000830152620013e281620013a0565b9050919050565b7f4e487b7100000000000000000000000000000000000000000000000000000000600052601160045260246000fd5b600062001425826200112b565b915062001432836200112b565b925082820262001442816200112b565b915082820484148315176200145c576200145b620013e9565b5b5092915050565b7f4e487b7100000000000000000000000000000000000000000000000000000000600052601260045260246000fd5b60006200149f826200112b565b9150620014ac836200112b565b925082620014bf57620014be62001463565b5b828204905092915050565b7f45524332303a206d696e7420746f20746865207a65726f206164647265737300600082015250565b600062001502601f8362001366565b91506200150f82620014ca565b602082019050919050565b600060208201905081810360008301526200153581620014f3565b9050919050565b600062001549826200112b565b915062001556836200112b565b9250828201905080821115620015715762001570620013e9565b5b92915050565b62001582816200112b565b82525050565b60006020820190506200159f600083018462001577565b92915050565b7f45524332303a207472616e736665722066726f6d20746865207a65726f20616460008201527f6472657373000000000000000000000000000000000000000000000000000000602082015250565b60006200160360258362001366565b91506200161082620015a5565b604082019050919050565b600060208201905081810360008301526200163681620015f4565b9050919050565b7f45524332303a207472616e7366657220746f20746865207a65726f206164647260008201527f6573730000000000000000000000000000000000000000000000000000000000602082015250565b60006200169b60238362001366565b9150620016a8826200163d565b604082019050919050565b60006020820190508181036000830152620016ce816200168c565b9050919050565b7f45524332303a207472616e7366657220616d6f756e742065786365656473206260008201527f616c616e63650000000000000000000000000000000000000000000000000000602082015250565b60006200173360268362001366565b91506200174082620016d5565b604082019050919050565b60006020820190508181036000830152620017668162001724565b9050919050565b60805160a05160c05160e0516101005161012051610140516101605161018051611ee36200181d600039600081816107290152610da20152600081816108b60152610d3b015260008181610cc30152610e71015260006108da0152600081816105e50152610c4c0152600081816108920152610bd501526000818161065f0152610b5e0152600081816108fe0152610ae701526000818161074d015281816108320152610dc60152611ee36000f3fe608060405234801561001057600080fd5b506004361061018e5760003560e01c80637b929c27116100de578063a9059cbb11610097578063d662321b11610071578063d662321b1461046b578063dc1fb5a514610489578063dd62ed3e146104a7578063e377ac31146104d75761018e565b8063a9059cbb14610413578063ae15a8f614610443578063d52d4834146104615761018e565b80637b929c271461034d5780637fce02031461036b5780638ac27f5f14610389578063934aa023146103a757806395d89b41146103c5578063a457c2d7146103e35761018e565b8063313ce5671161014b57806341fbb0501161012557806341fbb050146102d757806367fea82e146102f557806370a082311461031357806375bf4d6e146103435761018e565b8063313ce5671461026b57806339509351146102895780633d3d937d146102b95761018e565b806306fdde0314610193578063095ea7b3146101b157806318160ddd146101e157806323b872dd146101ff5780632d3e474a1461022f5780632ff2e9dc1461024d575b600080fd5b61019b6104f5565b6040516101a891906115d0565b60405180910390f35b6101cb60048036038101906101c6919061168b565b610587565b6040516101d891906116e6565b60405180910390f35b6101e96105aa565b6040516101f69190611710565b60405180910390f35b6102196004803603810190610214919061172b565b6105b4565b60405161022691906116e6565b60405180910390f35b6102376105e3565b604051610244919061178d565b60405180910390f35b610255610607565b6040516102629190611710565b60405180910390f35b610273610617565b60405161028091906117c4565b60405180910390f35b6102a3600480360381019061029e919061168b565b610620565b6040516102b091906116e6565b60405180910390f35b6102c1610657565b6040516102ce9190611710565b60405180910390f35b6102df61065d565b6040516102ec919061178d565b60405180910390f35b6102fd610681565b60405161030a9190611710565b60405180910390f35b61032d600480360381019061032891906117df565b610687565b60405161033a9190611710565b60405180910390f35b61034b6106cf565b005b610355610890565b604051610362919061178d565b60405180910390f35b6103736108b4565b604051610380919061178d565b60405180910390f35b6103916108d8565b60405161039e919061178d565b60405180910390f35b6103af6108fc565b6040516103bc919061178d565b60405180910390f35b6103cd610920565b6040516103da91906115d0565b60405180910390f35b6103fd60048036038101906103f8919061168b565b6109b2565b60405161040a91906116e6565b60405180910390f35b61042d6004803603810190610428919061168b565b610a29565b60405161043a91906116e6565b60405180910390f35b61044b610a4c565b6040516104589190611710565b60405180910390f35b610469610a51565b005b610473610da0565b6040516104809190611710565b60405180910390f35b610491610dc4565b60405161049e919061178d565b60405180910390f35b6104c160048036038101906104bc919061180c565b610de8565b6040516104ce9190611710565b60405180910390f35b6104df610e6f565b6040516104ec919061178d565b60405180910390f35b6060600380546105049061187b565b80601f01602080910402602001604051908101604052809291908181526020018280546105309061187b565b801561057d5780601f106105525761010080835404028352916020019161057d565b820191906000526020600020905b81548152906001019060200180831161056057829003601f168201915b5050505050905090565b600080610592610e93565b905061059f818585610e9b565b600191505092915050565b6000600254905090565b6000806105bf610e93565b90506105cc858285611064565b6105d78585856110f0565b60019150509392505050565b7f000000000000000000000000000000000000000000000000000000000000000081565b6b19d971e4fe8401e74000000081565b60006012905090565b60008061062b610e93565b905061064c81858561063d8589610de8565b61064791906118db565b610e9b565b600191505092915050565b60055481565b7f000000000000000000000000000000000000000000000000000000000000000081565b60065481565b60008060008373ffffffffffffffffffffffffffffffffffffffff1673ffffffffffffffffffffffffffffffffffffffff168152602001908152602001600020549050919050565b6106e367a3e615225dea394560c01b611366565b6106f767a0e2e4d5fdcb815c60c01b611366565b61070b67ed43b28e9341bfdd60c01b611366565b6301e1338060055461071d91906118db565b421015801561077357507f00000000000000000000000000000000000000000000000000000000000000006107717f0000000000000000000000000000000000000000000000000000000000000000610687565b115b156108795761078c67cfe175c27984e3ee60c01b611366565b6107a067e465bb0e23ae1aed60c01b611366565b6107b4676daca51dc85d88c660c01b611366565b60006107be6105aa565b90506107d467ace93f48f63b0eca60c01b611366565b6107e8672d532abb39bf2c2560c01b611366565b600060646003836107f9919061190f565b6108039190611980565b90506108196712cdaab2836bbf5260c01b611366565b61082d677f171d75ed087ae960c01b611366565b6108577f000000000000000000000000000000000000000000000000000000000000000082611369565b61086b6715a1232040478bf160c01b611366565b42600581905550505061088e565b61088d676abde794d0f078c560c01b611366565b5b565b7f000000000000000000000000000000000000000000000000000000000000000081565b7f000000000000000000000000000000000000000000000000000000000000000081565b7f000000000000000000000000000000000000000000000000000000000000000081565b7f000000000000000000000000000000000000000000000000000000000000000081565b60606004805461092f9061187b565b80601f016020809104026020016040519081016040528092919081815260200182805461095b9061187b565b80156109a85780601f1061097d576101008083540402835291602001916109a8565b820191906000526020600020905b81548152906001019060200180831161098b57829003601f168201915b5050505050905090565b6000806109bd610e93565b905060006109cb8286610de8565b905083811015610a10576040517f08c379a0000000000000000000000000000000000000000000000000000000008152600401610a0790611a23565b60405180910390fd5b610a1d8286868403610e9b565b60019250505092915050565b600080610a34610e93565b9050610a418185856110f0565b600191505092915050565b600381565b610a6567ac47cf26f88795c960c01b611366565b610a7967ae746b02326d9c5c60c01b611366565b610a8d675852138f210ec42d60c01b611366565b6305a39a80600654610a9f91906118db565b4210610d8957610ab967df2498de0ba89ff360c01b611366565b610acd671f0e02e72a00239660c01b611366565b610ae167d8afa81e4adb123860c01b611366565b610b30307f0000000000000000000000000000000000000000000000000000000000000000606460146b19d971e4fe8401e740000000610b21919061190f565b610b2b9190611980565b6110f0565b610b4467a8aebd8d0009eddf60c01b611366565b610b58676a0c36efc89c95a360c01b611366565b610ba7307f0000000000000000000000000000000000000000000000000000000000000000606460056b19d971e4fe8401e740000000610b98919061190f565b610ba29190611980565b6110f0565b610bbb67b2dff89af899b62060c01b611366565b610bcf67eda9f67ef04948b560c01b611366565b610c1e307f0000000000000000000000000000000000000000000000000000000000000000606460056b19d971e4fe8401e740000000610c0f919061190f565b610c199190611980565b6110f0565b610c326710f9c24227cdce4160c01b611366565b610c46670a7d4d28755f337560c01b611366565b610c95307f0000000000000000000000000000000000000000000000000000000000000000606460036b19d971e4fe8401e740000000610c86919061190f565b610c909190611980565b6110f0565b610ca96705a5fa34c8f16b8b60c01b611366565b610cbd67d126fa5198dfc84260c01b611366565b610d0d307f00000000000000000000000000000000000000000000000000000000000000006103e860196b19d971e4fe8401e740000000610cfe919061190f565b610d089190611980565b6110f0565b610d21671553613318a999be60c01b611366565b610d35674ded80b9be91d2dc60c01b611366565b610d84307f0000000000000000000000000000000000000000000000000000000000000000606460016b19d971e4fe8401e740000000610d75919061190f565b610d7f9190611980565b6110f0565b610d9e565b610d9d67253233425eae5e5b60c01b611366565b5b565b7f000000000000000000000000000000000000000000000000000000000000000081565b7f000000000000000000000000000000000000000000000000000000000000000081565b6000600160008473ffffffffffffffffffffffffffffffffffffffff1673ffffffffffffffffffffffffffffffffffffffff16815260200190815260200160002060008373ffffffffffffffffffffffffffffffffffffffff1673ffffffffffffffffffffffffffffffffffffffff16815260200190815260200160002054905092915050565b7f000000000000000000000000000000000000000000000000000000000000000081565b600033905090565b600073ffffffffffffffffffffffffffffffffffffffff168373ffffffffffffffffffffffffffffffffffffffff1603610f0a576040517f08c379a0000000000000000000000000000000000000000000000000000000008152600401610f0190611ab5565b60405180910390fd5b600073ffffffffffffffffffffffffffffffffffffffff168273ffffffffffffffffffffffffffffffffffffffff1603610f79576040517f08c379a0000000000000000000000000000000000000000000000000000000008152600401610f7090611b47565b60405180910390fd5b80600160008573ffffffffffffffffffffffffffffffffffffffff1673ffffffffffffffffffffffffffffffffffffffff16815260200190815260200160002060008473ffffffffffffffffffffffffffffffffffffffff1673ffffffffffffffffffffffffffffffffffffffff168152602001908152602001600020819055508173ffffffffffffffffffffffffffffffffffffffff168373ffffffffffffffffffffffffffffffffffffffff167f8c5be1e5ebec7d5bd14f71427d1e84f3dd0314c0f7b2291e5b200ac8c7c3b925836040516110579190611710565b60405180910390a3505050565b60006110708484610de8565b90507fffffffffffffffffffffffffffffffffffffffffffffffffffffffffffffffff81146110ea57818110156110dc576040517f08c379a00000000000000000000000000000000000000000000000000000000081526004016110d390611bb3565b60405180910390fd5b6110e98484848403610e9b565b5b50505050565b600073ffffffffffffffffffffffffffffffffffffffff168373ffffffffffffffffffffffffffffffffffffffff160361115f576040517f08c379a000000000000000000000000000000000000000000000000000000000815260040161115690611c45565b60405180910390fd5b600073ffffffffffffffffffffffffffffffffffffffff168273ffffffffffffffffffffffffffffffffffffffff16036111ce576040517f08c379a00000000000000000000000000000000000000000000000000000000081526004016111c590611cd7565b60405180910390fd5b6111d9838383611536565b60008060008573ffffffffffffffffffffffffffffffffffffffff1673ffffffffffffffffffffffffffffffffffffffff1681526020019081526020016000205490508181101561125f576040517f08c379a000000000000000000000000000000000000000000000000000000000815260040161125690611d69565b60405180910390fd5b8181036000808673ffffffffffffffffffffffffffffffffffffffff1673ffffffffffffffffffffffffffffffffffffffff16815260200190815260200160002081905550816000808573ffffffffffffffffffffffffffffffffffffffff1673ffffffffffffffffffffffffffffffffffffffff168152602001908152602001600020600082825401925050819055508273ffffffffffffffffffffffffffffffffffffffff168473ffffffffffffffffffffffffffffffffffffffff167fddf252ad1be2c89b69c2b068fc378daa952ba7f163c4a11628f55a4df523b3ef8460405161134d9190611710565b60405180910390a361136084848461153b565b50505050565b50565b600073ffffffffffffffffffffffffffffffffffffffff168273ffffffffffffffffffffffffffffffffffffffff16036113d8576040517f08c379a00000000000000000000000000000000000000000000000000000000081526004016113cf90611dfb565b60405180910390fd5b6113e482600083611536565b60008060008473ffffffffffffffffffffffffffffffffffffffff1673ffffffffffffffffffffffffffffffffffffffff1681526020019081526020016000205490508181101561146a576040517f08c379a000000000000000000000000000000000000000000000000000000000815260040161146190611e8d565b60405180910390fd5b8181036000808573ffffffffffffffffffffffffffffffffffffffff1673ffffffffffffffffffffffffffffffffffffffff1681526020019081526020016000208190555081600260008282540392505081905550600073ffffffffffffffffffffffffffffffffffffffff168373ffffffffffffffffffffffffffffffffffffffff167fddf252ad1be2c89b69c2b068fc378daa952ba7f163c4a11628f55a4df523b3ef8460405161151d9190611710565b60405180910390a36115318360008461153b565b505050565b505050565b505050565b600081519050919050565b600082825260208201905092915050565b60005b8381101561157a57808201518184015260208101905061155f565b60008484015250505050565b6000601f19601f8301169050919050565b60006115a282611540565b6115ac818561154b565b93506115bc81856020860161155c565b6115c581611586565b840191505092915050565b600060208201905081810360008301526115ea8184611597565b905092915050565b600080fd5b600073ffffffffffffffffffffffffffffffffffffffff82169050919050565b6000611622826115f7565b9050919050565b61163281611617565b811461163d57600080fd5b50565b60008135905061164f81611629565b92915050565b6000819050919050565b61166881611655565b811461167357600080fd5b50565b6000813590506116858161165f565b92915050565b600080604083850312156116a2576116a16115f2565b5b60006116b085828601611640565b92505060206116c185828601611676565b9150509250929050565b60008115159050919050565b6116e0816116cb565b82525050565b60006020820190506116fb60008301846116d7565b92915050565b61170a81611655565b82525050565b60006020820190506117256000830184611701565b92915050565b600080600060608486031215611744576117436115f2565b5b600061175286828701611640565b935050602061176386828701611640565b925050604061177486828701611676565b9150509250925092565b61178781611617565b82525050565b60006020820190506117a2600083018461177e565b92915050565b600060ff82169050919050565b6117be816117a8565b82525050565b60006020820190506117d960008301846117b5565b92915050565b6000602082840312156117f5576117f46115f2565b5b600061180384828501611640565b91505092915050565b60008060408385031215611823576118226115f2565b5b600061183185828601611640565b925050602061184285828601611640565b9150509250929050565b7f4e487b7100000000000000000000000000000000000000000000000000000000600052602260045260246000fd5b6000600282049050600182168061189357607f821691505b6020821081036118a6576118a561184c565b5b50919050565b7f4e487b7100000000000000000000000000000000000000000000000000000000600052601160045260246000fd5b60006118e682611655565b91506118f183611655565b9250828201905080821115611909576119086118ac565b5b92915050565b600061191a82611655565b915061192583611655565b925082820261193381611655565b9150828204841483151761194a576119496118ac565b5b5092915050565b7f4e487b7100000000000000000000000000000000000000000000000000000000600052601260045260246000fd5b600061198b82611655565b915061199683611655565b9250826119a6576119a5611951565b5b828204905092915050565b7f45524332303a2064656372656173656420616c6c6f77616e63652062656c6f7760008201527f207a65726f000000000000000000000000000000000000000000000000000000602082015250565b6000611a0d60258361154b565b9150611a18826119b1565b604082019050919050565b60006020820190508181036000830152611a3c81611a00565b9050919050565b7f45524332303a20617070726f76652066726f6d20746865207a65726f2061646460008201527f7265737300000000000000000000000000000000000000000000000000000000602082015250565b6000611a9f60248361154b565b9150611aaa82611a43565b604082019050919050565b60006020820190508181036000830152611ace81611a92565b9050919050565b7f45524332303a20617070726f766520746f20746865207a65726f20616464726560008201527f7373000000000000000000000000000000000000000000000000000000000000602082015250565b6000611b3160228361154b565b9150611b3c82611ad5565b604082019050919050565b60006020820190508181036000830152611b6081611b24565b9050919050565b7f45524332303a20696e73756666696369656e7420616c6c6f77616e6365000000600082015250565b6000611b9d601d8361154b565b9150611ba882611b67565b602082019050919050565b60006020820190508181036000830152611bcc81611b90565b9050919050565b7f45524332303a207472616e736665722066726f6d20746865207a65726f20616460008201527f6472657373000000000000000000000000000000000000000000000000000000602082015250565b6000611c2f60258361154b565b9150611c3a82611bd3565b604082019050919050565b60006020820190508181036000830152611c5e81611c22565b9050919050565b7f45524332303a207472616e7366657220746f20746865207a65726f206164647260008201527f6573730000000000000000000000000000000000000000000000000000000000602082015250565b6000611cc160238361154b565b9150611ccc82611c65565b604082019050919050565b60006020820190508181036000830152611cf081611cb4565b9050919050565b7f45524332303a207472616e7366657220616d6f756e742065786365656473206260008201527f616c616e63650000000000000000000000000000000000000000000000000000602082015250565b6000611d5360268361154b565b9150611d5e82611cf7565b604082019050919050565b60006020820190508181036000830152611d8281611d46565b9050919050565b7f45524332303a206275726e2066726f6d20746865207a65726f2061646472657360008201527f7300000000000000000000000000000000000000000000000000000000000000602082015250565b6000611de560218361154b565b9150611df082611d89565b604082019050919050565b60006020820190508181036000830152611e1481611dd8565b9050919050565b7f45524332303a206275726e20616d6f756e7420657863656564732062616c616e60008201527f6365000000000000000000000000000000000000000000000000000000000000602082015250565b6000611e7760228361154b565b9150611e8282611e1b565b604082019050919050565b60006020820190508181036000830152611ea681611e6a565b905091905056fea26469706673582212206b60300a59ec252966f7cc95463b3f554fc60921341b330a14450eb4752acb1864736f6c63430008160033","opcodes":"PUSH2 0x1A0 PUSH1 0x40 MSTORE CALLVALUE DUP1 ISZERO PUSH3 0x12 JUMPI PUSH1 0x0 DUP1 REVERT JUMPDEST POP PUSH1 0x40 MLOAD PUSH3 0x3700 CODESIZE SUB DUP1 PUSH3 0x3700 DUP4 CODECOPY DUP2 DUP2 ADD PUSH1 0x40 MSTORE DUP2 ADD SWAP1 PUSH3 0x38 SWAP2 SWAP1 PUSH3 0xF3C JUMP JUMPDEST PUSH1 0x40 MLOAD DUP1 PUSH1 0x40 ADD PUSH1 0x40 MSTORE DUP1 PUSH1 0x7 DUP2 MSTORE PUSH1 0x20 ADD PUSH32 0x4D41525348412B00000000000000000000000000000000000000000000000000 DUP2 MSTORE POP PUSH1 0x40 MLOAD DUP1 PUSH1 0x40 ADD PUSH1 0x40 MSTORE DUP1 PUSH1 0x3 DUP2 MSTORE PUSH1 0x20 ADD PUSH32 0x4D53410000000000000000000000000000000000000000000000000000000000 DUP2 MSTORE POP DUP2 PUSH1 0x3 SWAP1 DUP2 PUSH3 0xB5 SWAP2 SWAP1 PUSH3 0x127F JUMP JUMPDEST POP DUP1 PUSH1 0x4 SWAP1 DUP2 PUSH3 0xC7 SWAP2 SWAP1 PUSH3 0x127F JUMP JUMPDEST POP POP POP PUSH3 0xE6 PUSH8 0x5614C1734D3F72AE PUSH1 0xC0 SHL PUSH3 0xA7F PUSH1 0x20 SHL PUSH1 0x20 SHR JUMP JUMPDEST PUSH3 0x102 PUSH8 0xD5883E1716BE35FD PUSH1 0xC0 SHL PUSH3 0xA7F PUSH1 0x20 SHL PUSH1 0x20 SHR JUMP JUMPDEST PUSH3 0x11E PUSH8 0xD091D273CCFBC945 PUSH1 0xC0 SHL PUSH3 0xA7F PUSH1 0x20 SHL PUSH1 0x20 SHR JUMP JUMPDEST PUSH3 0x13A PUSH8 0x486ED15D5781869B PUSH1 0xC0 SHL PUSH3 0xA7F PUSH1 0x20 SHL PUSH1 0x20 SHR JUMP JUMPDEST PUSH1 0x0 PUSH20 0xFFFFFFFFFFFFFFFFFFFFFFFFFFFFFFFFFFFFFFFF AND DUP9 PUSH20 0xFFFFFFFFFFFFFFFFFFFFFFFFFFFFFFFFFFFFFFFF AND EQ ISZERO DUP1 ISZERO PUSH3 0x1A5 JUMPI POP PUSH1 0x0 PUSH20 0xFFFFFFFFFFFFFFFFFFFFFFFFFFFFFFFFFFFFFFFF AND DUP8 PUSH20 0xFFFFFFFFFFFFFFFFFFFFFFFFFFFFFFFFFFFFFFFF AND EQ ISZERO JUMPDEST DUP1 ISZERO PUSH3 0x1DF JUMPI POP PUSH1 0x0 PUSH20 0xFFFFFFFFFFFFFFFFFFFFFFFFFFFFFFFFFFFFFFFF AND DUP7 PUSH20 0xFFFFFFFFFFFFFFFFFFFFFFFFFFFFFFFFFFFFFFFF AND EQ ISZERO JUMPDEST DUP1 ISZERO PUSH3 0x219 JUMPI POP PUSH1 0x0 PUSH20 0xFFFFFFFFFFFFFFFFFFFFFFFFFFFFFFFFFFFFFFFF AND DUP6 PUSH20 0xFFFFFFFFFFFFFFFFFFFFFFFFFFFFFFFFFFFFFFFF AND EQ ISZERO JUMPDEST DUP1 ISZERO PUSH3 0x253 JUMPI POP PUSH1 0x0 PUSH20 0xFFFFFFFFFFFFFFFFFFFFFFFFFFFFFFFFFFFFFFFF AND DUP5 PUSH20 0xFFFFFFFFFFFFFFFFFFFFFFFFFFFFFFFFFFFFFFFF AND EQ ISZERO JUMPDEST DUP1 ISZERO PUSH3 0x28D JUMPI POP PUSH1 0x0 PUSH20 0xFFFFFFFFFFFFFFFFFFFFFFFFFFFFFFFFFFFFFFFF AND DUP4 PUSH20 0xFFFFFFFFFFFFFFFFFFFFFFFFFFFFFFFFFFFFFFFF AND EQ ISZERO JUMPDEST DUP1 ISZERO PUSH3 0x2C7 JUMPI POP PUSH1 0x0 PUSH20 0xFFFFFFFFFFFFFFFFFFFFFFFFFFFFFFFFFFFFFFFF AND DUP3 PUSH20 0xFFFFFFFFFFFFFFFFFFFFFFFFFFFFFFFFFFFFFFFF AND EQ ISZERO JUMPDEST DUP1 ISZERO PUSH3 0x301 JUMPI POP PUSH1 0x0 PUSH20 0xFFFFFFFFFFFFFFFFFFFFFFFFFFFFFFFFFFFFFFFF AND DUP2 PUSH20 0xFFFFFFFFFFFFFFFFFFFFFFFFFFFFFFFFFFFFFFFF AND EQ ISZERO JUMPDEST PUSH3 0x343 JUMPI PUSH1 0x40 MLOAD PUSH32 0x8C379A000000000000000000000000000000000000000000000000000000000 DUP2 MSTORE PUSH1 0x4 ADD PUSH3 0x33A SWAP1 PUSH3 0x13C7 JUMP JUMPDEST PUSH1 0x40 MLOAD DUP1 SWAP2 SUB SWAP1 REVERT JUMPDEST PUSH3 0x35F PUSH8 0x1A2CFEDB048650A4 PUSH1 0xC0 SHL PUSH3 0xA7F PUSH1 0x20 SHL PUSH1 0x20 SHR JUMP JUMPDEST PUSH3 0x37B PUSH8 0x7107FE1AA26A01D8 PUSH1 0xC0 SHL PUSH3 0xA7F PUSH1 0x20 SHL PUSH1 0x20 SHR JUMP JUMPDEST DUP8 PUSH20 0xFFFFFFFFFFFFFFFFFFFFFFFFFFFFFFFFFFFFFFFF AND PUSH1 0x80 DUP2 PUSH20 0xFFFFFFFFFFFFFFFFFFFFFFFFFFFFFFFFFFFFFFFF AND DUP2 MSTORE POP POP PUSH3 0x3CB PUSH8 0x7E370915C3D679C3 PUSH1 0xC0 SHL PUSH3 0xA7F PUSH1 0x20 SHL PUSH1 0x20 SHR JUMP JUMPDEST DUP7 PUSH20 0xFFFFFFFFFFFFFFFFFFFFFFFFFFFFFFFFFFFFFFFF AND PUSH1 0xA0 DUP2 PUSH20 0xFFFFFFFFFFFFFFFFFFFFFFFFFFFFFFFFFFFFFFFF AND DUP2 MSTORE POP POP PUSH3 0x41B PUSH8 0x79CB13DA2F5DF235 PUSH1 0xC0 SHL PUSH3 0xA7F PUSH1 0x20 SHL PUSH1 0x20 SHR JUMP JUMPDEST DUP6 PUSH20 0xFFFFFFFFFFFFFFFFFFFFFFFFFFFFFFFFFFFFFFFF AND PUSH1 0xC0 DUP2 PUSH20 0xFFFFFFFFFFFFFFFFFFFFFFFFFFFFFFFFFFFFFFFF AND DUP2 MSTORE POP POP PUSH3 0x46B PUSH8 0xF957B8099616B126 PUSH1 0xC0 SHL PUSH3 0xA7F PUSH1 0x20 SHL PUSH1 0x20 SHR JUMP JUMPDEST DUP5 PUSH20 0xFFFFFFFFFFFFFFFFFFFFFFFFFFFFFFFFFFFFFFFF AND PUSH1 0xE0 DUP2 PUSH20 0xFFFFFFFFFFFFFFFFFFFFFFFFFFFFFFFFFFFFFFFF AND DUP2 MSTORE POP POP PUSH3 0x4BB PUSH8 0xE581530B49A272FE PUSH1 0xC0 SHL PUSH3 0xA7F PUSH1 0x20 SHL PUSH1 0x20 SHR JUMP JUMPDEST DUP4 PUSH20 0xFFFFFFFFFFFFFFFFFFFFFFFFFFFFFFFFFFFFFFFF AND PUSH2 0x100 DUP2 PUSH20 0xFFFFFFFFFFFFFFFFFFFFFFFFFFFFFFFFFFFFFFFF AND DUP2 MSTORE POP POP PUSH3 0x50C PUSH8 0xFC241FD399891FF7 PUSH1 0xC0 SHL PUSH3 0xA7F PUSH1 0x20 SHL PUSH1 0x20 SHR JUMP JUMPDEST DUP3 PUSH20 0xFFFFFFFFFFFFFFFFFFFFFFFFFFFFFFFFFFFFFFFF AND PUSH2 0x120 DUP2 PUSH20 0xFFFFFFFFFFFFFFFFFFFFFFFFFFFFFFFFFFFFFFFF AND DUP2 MSTORE POP POP PUSH3 0x55D PUSH8 0x8E157FE651893D5C PUSH1 0xC0 SHL PUSH3 0xA7F PUSH1 0x20 SHL PUSH1 0x20 SHR JUMP JUMPDEST DUP2 PUSH20 0xFFFFFFFFFFFFFFFFFFFFFFFFFFFFFFFFFFFFFFFF AND PUSH2 0x140 DUP2 PUSH20 0xFFFFFFFFFFFFFFFFFFFFFFFFFFFFFFFFFFFFFFFF AND DUP2 MSTORE POP POP PUSH3 0x5AE PUSH8 0x65C07C554A7D5CB PUSH1 0xC0 SHL PUSH3 0xA7F PUSH1 0x20 SHL PUSH1 0x20 SHR JUMP JUMPDEST DUP1 PUSH20 0xFFFFFFFFFFFFFFFFFFFFFFFFFFFFFFFFFFFFFFFF AND PUSH2 0x160 DUP2 PUSH20 0xFFFFFFFFFFFFFFFFFFFFFFFFFFFFFFFFFFFFFFFF AND DUP2 MSTORE POP POP PUSH3 0x5FF PUSH8 0x2729D91E7D8D2A7 PUSH1 0xC0 SHL PUSH3 0xA7F PUSH1 0x20 SHL PUSH1 0x20 SHR JUMP JUMPDEST TIMESTAMP PUSH1 0x5 DUP2 SWAP1 SSTORE POP PUSH3 0x622 PUSH8 0x199E8D50D1246918 PUSH1 0xC0 SHL PUSH3 0xA7F PUSH1 0x20 SHL PUSH1 0x20 SHR JUMP JUMPDEST TIMESTAMP PUSH1 0x6 DUP2 SWAP1 SSTORE POP PUSH3 0x645 PUSH8 0x77C7B67572CC20FF PUSH1 0xC0 SHL PUSH3 0xA7F PUSH1 0x20 SHL PUSH1 0x20 SHR JUMP JUMPDEST PUSH3 0x661 PUSH8 0x9CBEAC42F19FD732 PUSH1 0xC0 SHL PUSH3 0xA7F PUSH1 0x20 SHL PUSH1 0x20 SHR JUMP JUMPDEST PUSH3 0x67F ADDRESS PUSH12 0x19D971E4FE8401E740000000 PUSH3 0xA82 PUSH1 0x20 SHL PUSH1 0x20 SHR JUMP JUMPDEST PUSH3 0x69B PUSH8 0xE5625C1943E14B7B PUSH1 0xC0 SHL PUSH3 0xA7F PUSH1 0x20 SHL PUSH1 0x20 SHR JUMP JUMPDEST PUSH3 0x6B7 PUSH8 0x6391DEF439D1D201 PUSH1 0xC0 SHL PUSH3 0xA7F PUSH1 0x20 SHL PUSH1 0x20 SHR JUMP JUMPDEST PUSH3 0x6F4 ADDRESS PUSH1 0x80 MLOAD PUSH1 0x64 PUSH1 0x23 PUSH12 0x19D971E4FE8401E740000000 PUSH3 0x6DC SWAP2 SWAP1 PUSH3 0x1418 JUMP JUMPDEST PUSH3 0x6E8 SWAP2 SWAP1 PUSH3 0x1492 JUMP JUMPDEST PUSH3 0xBEF PUSH1 0x20 SHL PUSH1 0x20 SHR JUMP JUMPDEST PUSH3 0x710 PUSH8 0x90F2B4A1C54B3AE1 PUSH1 0xC0 SHL PUSH3 0xA7F PUSH1 0x20 SHL PUSH1 0x20 SHR JUMP JUMPDEST PUSH1 0x2 PUSH3 0x725 PUSH1 0x80 MLOAD PUSH3 0xE80 PUSH1 0x20 SHL PUSH1 0x20 SHR JUMP JUMPDEST PUSH3 0x731 SWAP2 SWAP1 PUSH3 0x1492 JUMP JUMPDEST PUSH2 0x180 DUP2 DUP2 MSTORE POP POP PUSH3 0x755 PUSH8 0x8EE9E1C9CA813A82 PUSH1 0xC0 SHL PUSH3 0xA7F PUSH1 0x20 SHL PUSH1 0x20 SHR JUMP JUMPDEST PUSH3 0x771 PUSH8 0xD55DE28B7F04A315 PUSH1 0xC0 SHL PUSH3 0xA7F PUSH1 0x20 SHL PUSH1 0x20 SHR JUMP JUMPDEST PUSH3 0x7AE ADDRESS PUSH1 0xA0 MLOAD PUSH1 0x64 PUSH1 0x5 PUSH12 0x19D971E4FE8401E740000000 PUSH3 0x796 SWAP2 SWAP1 PUSH3 0x1418 JUMP JUMPDEST PUSH3 0x7A2 SWAP2 SWAP1 PUSH3 0x1492 JUMP JUMPDEST PUSH3 0xBEF PUSH1 0x20 SHL PUSH1 0x20 SHR JUMP JUMPDEST PUSH3 0x7CA PUSH8 0xD87C8D0E628553FE PUSH1 0xC0 SHL PUSH3 0xA7F PUSH1 0x20 SHL PUSH1 0x20 SHR JUMP JUMPDEST PUSH3 0x7E6 PUSH8 0x9D92592E34820AFB PUSH1 0xC0 SHL PUSH3 0xA7F PUSH1 0x20 SHL PUSH1 0x20 SHR JUMP JUMPDEST PUSH3 0x823 ADDRESS PUSH1 0xC0 MLOAD PUSH1 0x64 PUSH1 0x5 PUSH12 0x19D971E4FE8401E740000000 PUSH3 0x80B SWAP2 SWAP1 PUSH3 0x1418 JUMP JUMPDEST PUSH3 0x817 SWAP2 SWAP1 PUSH3 0x1492 JUMP JUMPDEST PUSH3 0xBEF PUSH1 0x20 SHL PUSH1 0x20 SHR JUMP JUMPDEST PUSH3 0x83F PUSH8 0x33DCFAC452FAF204 PUSH1 0xC0 SHL PUSH3 0xA7F PUSH1 0x20 SHL PUSH1 0x20 SHR JUMP JUMPDEST PUSH3 0x85B PUSH8 0xCB3963A7006D500B PUSH1 0xC0 SHL PUSH3 0xA7F PUSH1 0x20 SHL PUSH1 0x20 SHR JUMP JUMPDEST PUSH3 0x898 ADDRESS PUSH1 0xE0 MLOAD PUSH1 0x64 PUSH1 0x5 PUSH12 0x19D971E4FE8401E740000000 PUSH3 0x880 SWAP2 SWAP1 PUSH3 0x1418 JUMP JUMPDEST PUSH3 0x88C SWAP2 SWAP1 PUSH3 0x1492 JUMP JUMPDEST PUSH3 0xBEF PUSH1 0x20 SHL PUSH1 0x20 SHR JUMP JUMPDEST PUSH3 0x8B4 PUSH8 0x5D3A46746539F57A PUSH1 0xC0 SHL PUSH3 0xA7F PUSH1 0x20 SHL PUSH1 0x20 SHR JUMP JUMPDEST PUSH3 0x8D0 PUSH8 0x4DDD4571E16769A PUSH1 0xC0 SHL PUSH3 0xA7F PUSH1 0x20 SHL PUSH1 0x20 SHR JUMP JUMPDEST PUSH3 0x90E ADDRESS PUSH2 0x100 MLOAD PUSH1 0x64 PUSH1 0x5 PUSH12 0x19D971E4FE8401E740000000 PUSH3 0x8F6 SWAP2 SWAP1 PUSH3 0x1418 JUMP JUMPDEST PUSH3 0x902 SWAP2 SWAP1 PUSH3 0x1492 JUMP JUMPDEST PUSH3 0xBEF PUSH1 0x20 SHL PUSH1 0x20 SHR JUMP JUMPDEST PUSH3 0x92A PUSH8 0x3CF3FFDDEC18AFCD PUSH1 0xC0 SHL PUSH3 0xA7F PUSH1 0x20 SHL PUSH1 0x20 SHR JUMP JUMPDEST PUSH3 0x946 PUSH8 0xD016E7F13E1B758D PUSH1 0xC0 SHL PUSH3 0xA7F PUSH1 0x20 SHL PUSH1 0x20 SHR JUMP JUMPDEST PUSH3 0x984 ADDRESS PUSH2 0x120 MLOAD PUSH1 0x64 PUSH1 0x5 PUSH12 0x19D971E4FE8401E740000000 PUSH3 0x96C SWAP2 SWAP1 PUSH3 0x1418 JUMP JUMPDEST PUSH3 0x978 SWAP2 SWAP1 PUSH3 0x1492 JUMP JUMPDEST PUSH3 0xBEF PUSH1 0x20 SHL PUSH1 0x20 SHR JUMP JUMPDEST PUSH3 0x9A0 PUSH8 0x8FD489CDDC1F6870 PUSH1 0xC0 SHL PUSH3 0xA7F PUSH1 0x20 SHL PUSH1 0x20 SHR JUMP JUMPDEST PUSH3 0x9BC PUSH8 0xA1350C89DE440251 PUSH1 0xC0 SHL PUSH3 0xA7F PUSH1 0x20 SHL PUSH1 0x20 SHR JUMP JUMPDEST PUSH3 0x9FB ADDRESS PUSH2 0x140 MLOAD PUSH2 0x3E8 PUSH1 0x19 PUSH12 0x19D971E4FE8401E740000000 PUSH3 0x9E3 SWAP2 SWAP1 PUSH3 0x1418 JUMP JUMPDEST PUSH3 0x9EF SWAP2 SWAP1 PUSH3 0x1492 JUMP JUMPDEST PUSH3 0xBEF PUSH1 0x20 SHL PUSH1 0x20 SHR JUMP JUMPDEST PUSH3 0xA17 PUSH8 0xDD6A0EFDCFDEC681 PUSH1 0xC0 SHL PUSH3 0xA7F PUSH1 0x20 SHL PUSH1 0x20 SHR JUMP JUMPDEST PUSH3 0xA33 PUSH8 0xA3B286E3639717AA PUSH1 0xC0 SHL PUSH3 0xA7F PUSH1 0x20 SHL PUSH1 0x20 SHR JUMP JUMPDEST PUSH3 0xA71 ADDRESS PUSH2 0x160 MLOAD PUSH1 0x64 PUSH1 0x1 PUSH12 0x19D971E4FE8401E740000000 PUSH3 0xA59 SWAP2 SWAP1 PUSH3 0x1418 JUMP JUMPDEST PUSH3 0xA65 SWAP2 SWAP1 PUSH3 0x1492 JUMP JUMPDEST PUSH3 0xBEF PUSH1 0x20 SHL PUSH1 0x20 SHR JUMP JUMPDEST POP POP POP POP POP POP POP POP PUSH3 0x176D JUMP JUMPDEST POP JUMP JUMPDEST PUSH1 0x0 PUSH20 0xFFFFFFFFFFFFFFFFFFFFFFFFFFFFFFFFFFFFFFFF AND DUP3 PUSH20 0xFFFFFFFFFFFFFFFFFFFFFFFFFFFFFFFFFFFFFFFF AND SUB PUSH3 0xAF4 JUMPI PUSH1 0x40 MLOAD PUSH32 0x8C379A000000000000000000000000000000000000000000000000000000000 DUP2 MSTORE PUSH1 0x4 ADD PUSH3 0xAEB SWAP1 PUSH3 0x151A JUMP JUMPDEST PUSH1 0x40 MLOAD DUP1 SWAP2 SUB SWAP1 REVERT JUMPDEST PUSH3 0xB08 PUSH1 0x0 DUP4 DUP4 PUSH3 0xEC8 PUSH1 0x20 SHL PUSH1 0x20 SHR JUMP JUMPDEST DUP1 PUSH1 0x2 PUSH1 0x0 DUP3 DUP3 SLOAD PUSH3 0xB1C SWAP2 SWAP1 PUSH3 0x153C JUMP JUMPDEST SWAP3 POP POP DUP2 SWAP1 SSTORE POP DUP1 PUSH1 0x0 DUP1 DUP5 PUSH20 0xFFFFFFFFFFFFFFFFFFFFFFFFFFFFFFFFFFFFFFFF AND PUSH20 0xFFFFFFFFFFFFFFFFFFFFFFFFFFFFFFFFFFFFFFFF AND DUP2 MSTORE PUSH1 0x20 ADD SWAP1 DUP2 MSTORE PUSH1 0x20 ADD PUSH1 0x0 KECCAK256 PUSH1 0x0 DUP3 DUP3 SLOAD ADD SWAP3 POP POP DUP2 SWAP1 SSTORE POP DUP2 PUSH20 0xFFFFFFFFFFFFFFFFFFFFFFFFFFFFFFFFFFFFFFFF AND PUSH1 0x0 PUSH20 0xFFFFFFFFFFFFFFFFFFFFFFFFFFFFFFFFFFFFFFFF AND PUSH32 0xDDF252AD1BE2C89B69C2B068FC378DAA952BA7F163C4A11628F55A4DF523B3EF DUP4 PUSH1 0x40 MLOAD PUSH3 0xBCF SWAP2 SWAP1 PUSH3 0x1588 JUMP JUMPDEST PUSH1 0x40 MLOAD DUP1 SWAP2 SUB SWAP1 LOG3 PUSH3 0xBEB PUSH1 0x0 DUP4 DUP4 PUSH3 0xECD PUSH1 0x20 SHL PUSH1 0x20 SHR JUMP JUMPDEST POP POP JUMP JUMPDEST PUSH1 0x0 PUSH20 0xFFFFFFFFFFFFFFFFFFFFFFFFFFFFFFFFFFFFFFFF AND DUP4 PUSH20 0xFFFFFFFFFFFFFFFFFFFFFFFFFFFFFFFFFFFFFFFF AND SUB PUSH3 0xC61 JUMPI PUSH1 0x40 MLOAD PUSH32 0x8C379A000000000000000000000000000000000000000000000000000000000 DUP2 MSTORE PUSH1 0x4 ADD PUSH3 0xC58 SWAP1 PUSH3 0x161B JUMP JUMPDEST PUSH1 0x40 MLOAD DUP1 SWAP2 SUB SWAP1 REVERT JUMPDEST PUSH1 0x0 PUSH20 0xFFFFFFFFFFFFFFFFFFFFFFFFFFFFFFFFFFFFFFFF AND DUP3 PUSH20 0xFFFFFFFFFFFFFFFFFFFFFFFFFFFFFFFFFFFFFFFF AND SUB PUSH3 0xCD3 JUMPI PUSH1 0x40 MLOAD PUSH32 0x8C379A000000000000000000000000000000000000000000000000000000000 DUP2 MSTORE PUSH1 0x4 ADD PUSH3 0xCCA SWAP1 PUSH3 0x16B3 JUMP JUMPDEST PUSH1 0x40 MLOAD DUP1 SWAP2 SUB SWAP1 REVERT JUMPDEST PUSH3 0xCE6 DUP4 DUP4 DUP4 PUSH3 0xEC8 PUSH1 0x20 SHL PUSH1 0x20 SHR JUMP JUMPDEST PUSH1 0x0 DUP1 PUSH1 0x0 DUP6 PUSH20 0xFFFFFFFFFFFFFFFFFFFFFFFFFFFFFFFFFFFFFFFF AND PUSH20 0xFFFFFFFFFFFFFFFFFFFFFFFFFFFFFFFFFFFFFFFF AND DUP2 MSTORE PUSH1 0x20 ADD SWAP1 DUP2 MSTORE PUSH1 0x20 ADD PUSH1 0x0 KECCAK256 SLOAD SWAP1 POP DUP2 DUP2 LT ISZERO PUSH3 0xD6F JUMPI PUSH1 0x40 MLOAD PUSH32 0x8C379A000000000000000000000000000000000000000000000000000000000 DUP2 MSTORE PUSH1 0x4 ADD PUSH3 0xD66 SWAP1 PUSH3 0x174B JUMP JUMPDEST PUSH1 0x40 MLOAD DUP1 SWAP2 SUB SWAP1 REVERT JUMPDEST DUP2 DUP2 SUB PUSH1 0x0 DUP1 DUP7 PUSH20 0xFFFFFFFFFFFFFFFFFFFFFFFFFFFFFFFFFFFFFFFF AND PUSH20 0xFFFFFFFFFFFFFFFFFFFFFFFFFFFFFFFFFFFFFFFF AND DUP2 MSTORE PUSH1 0x20 ADD SWAP1 DUP2 MSTORE PUSH1 0x20 ADD PUSH1 0x0 KECCAK256 DUP2 SWAP1 SSTORE POP DUP2 PUSH1 0x0 DUP1 DUP6 PUSH20 0xFFFFFFFFFFFFFFFFFFFFFFFFFFFFFFFFFFFFFFFF AND PUSH20 0xFFFFFFFFFFFFFFFFFFFFFFFFFFFFFFFFFFFFFFFF AND DUP2 MSTORE PUSH1 0x20 ADD SWAP1 DUP2 MSTORE PUSH1 0x20 ADD PUSH1 0x0 KECCAK256 PUSH1 0x0 DUP3 DUP3 SLOAD ADD SWAP3 POP POP DUP2 SWAP1 SSTORE POP DUP3 PUSH20 0xFFFFFFFFFFFFFFFFFFFFFFFFFFFFFFFFFFFFFFFF AND DUP5 PUSH20 0xFFFFFFFFFFFFFFFFFFFFFFFFFFFFFFFFFFFFFFFF AND PUSH32 0xDDF252AD1BE2C89B69C2B068FC378DAA952BA7F163C4A11628F55A4DF523B3EF DUP5 PUSH1 0x40 MLOAD PUSH3 0xE5F SWAP2 SWAP1 PUSH3 0x1588 JUMP JUMPDEST PUSH1 0x40 MLOAD DUP1 SWAP2 SUB SWAP1 LOG3 PUSH3 0xE7A DUP5 DUP5 DUP5 PUSH3 0xECD PUSH1 0x20 SHL PUSH1 0x20 SHR JUMP JUMPDEST POP POP POP POP JUMP JUMPDEST PUSH1 0x0 DUP1 PUSH1 0x0 DUP4 PUSH20 0xFFFFFFFFFFFFFFFFFFFFFFFFFFFFFFFFFFFFFFFF AND PUSH20 0xFFFFFFFFFFFFFFFFFFFFFFFFFFFFFFFFFFFFFFFF AND DUP2 MSTORE PUSH1 0x20 ADD SWAP1 DUP2 MSTORE PUSH1 0x20 ADD PUSH1 0x0 KECCAK256 SLOAD SWAP1 POP SWAP2 SWAP1 POP JUMP JUMPDEST POP POP POP JUMP JUMPDEST POP POP POP JUMP JUMPDEST PUSH1 0x0 DUP1 REVERT JUMPDEST PUSH1 0x0 PUSH20 0xFFFFFFFFFFFFFFFFFFFFFFFFFFFFFFFFFFFFFFFF DUP3 AND SWAP1 POP SWAP2 SWAP1 POP JUMP JUMPDEST PUSH1 0x0 PUSH3 0xF04 DUP3 PUSH3 0xED7 JUMP JUMPDEST SWAP1 POP SWAP2 SWAP1 POP JUMP JUMPDEST PUSH3 0xF16 DUP2 PUSH3 0xEF7 JUMP JUMPDEST DUP2 EQ PUSH3 0xF22 JUMPI PUSH1 0x0 DUP1 REVERT JUMPDEST POP JUMP JUMPDEST PUSH1 0x0 DUP2 MLOAD SWAP1 POP PUSH3 0xF36 DUP2 PUSH3 0xF0B JUMP JUMPDEST SWAP3 SWAP2 POP POP JUMP JUMPDEST PUSH1 0x0 DUP1 PUSH1 0x0 DUP1 PUSH1 0x0 DUP1 PUSH1 0x0 DUP1 PUSH2 0x100 DUP10 DUP12 SUB SLT ISZERO PUSH3 0xF60 JUMPI PUSH3 0xF5F PUSH3 0xED2 JUMP JUMPDEST JUMPDEST PUSH1 0x0 PUSH3 0xF70 DUP12 DUP3 DUP13 ADD PUSH3 0xF25 JUMP JUMPDEST SWAP9 POP POP PUSH1 0x20 PUSH3 0xF83 DUP12 DUP3 DUP13 ADD PUSH3 0xF25 JUMP JUMPDEST SWAP8 POP POP PUSH1 0x40 PUSH3 0xF96 DUP12 DUP3 DUP13 ADD PUSH3 0xF25 JUMP JUMPDEST SWAP7 POP POP PUSH1 0x60 PUSH3 0xFA9 DUP12 DUP3 DUP13 ADD PUSH3 0xF25 JUMP JUMPDEST SWAP6 POP POP PUSH1 0x80 PUSH3 0xFBC DUP12 DUP3 DUP13 ADD PUSH3 0xF25 JUMP JUMPDEST SWAP5 POP POP PUSH1 0xA0 PUSH3 0xFCF DUP12 DUP3 DUP13 ADD PUSH3 0xF25 JUMP JUMPDEST SWAP4 POP POP PUSH1 0xC0 PUSH3 0xFE2 DUP12 DUP3 DUP13 ADD PUSH3 0xF25 JUMP JUMPDEST SWAP3 POP POP PUSH1 0xE0 PUSH3 0xFF5 DUP12 DUP3 DUP13 ADD PUSH3 0xF25 JUMP JUMPDEST SWAP2 POP POP SWAP3 SWAP6 SWAP9 POP SWAP3 SWAP6 SWAP9 SWAP1 SWAP4 SWAP7 POP JUMP JUMPDEST PUSH1 0x0 DUP2 MLOAD SWAP1 POP SWAP2 SWAP1 POP JUMP JUMPDEST PUSH32 0x4E487B7100000000000000000000000000000000000000000000000000000000 PUSH1 0x0 MSTORE PUSH1 0x41 PUSH1 0x4 MSTORE PUSH1 0x24 PUSH1 0x0 REVERT JUMPDEST PUSH32 0x4E487B7100000000000000000000000000000000000000000000000000000000 PUSH1 0x0 MSTORE PUSH1 0x22 PUSH1 0x4 MSTORE PUSH1 0x24 PUSH1 0x0 REVERT JUMPDEST PUSH1 0x0 PUSH1 0x2 DUP3 DIV SWAP1 POP PUSH1 0x1 DUP3 AND DUP1 PUSH3 0x1087 JUMPI PUSH1 0x7F DUP3 AND SWAP2 POP JUMPDEST PUSH1 0x20 DUP3 LT DUP2 SUB PUSH3 0x109D JUMPI PUSH3 0x109C PUSH3 0x103F JUMP JUMPDEST JUMPDEST POP SWAP2 SWAP1 POP JUMP JUMPDEST PUSH1 0x0 DUP2 SWAP1 POP DUP2 PUSH1 0x0 MSTORE PUSH1 0x20 PUSH1 0x0 KECCAK256 SWAP1 POP SWAP2 SWAP1 POP JUMP JUMPDEST PUSH1 0x0 PUSH1 0x20 PUSH1 0x1F DUP4 ADD DIV SWAP1 POP SWAP2 SWAP1 POP JUMP JUMPDEST PUSH1 0x0 DUP3 DUP3 SHL SWAP1 POP SWAP3 SWAP2 POP POP JUMP JUMPDEST PUSH1 0x0 PUSH1 0x8 DUP4 MUL PUSH3 0x1107 PUSH32 0xFFFFFFFFFFFFFFFFFFFFFFFFFFFFFFFFFFFFFFFFFFFFFFFFFFFFFFFFFFFFFFFF DUP3 PUSH3 0x10C8 JUMP JUMPDEST PUSH3 0x1113 DUP7 DUP4 PUSH3 0x10C8 JUMP JUMPDEST SWAP6 POP DUP1 NOT DUP5 AND SWAP4 POP DUP1 DUP7 AND DUP5 OR SWAP3 POP POP POP SWAP4 SWAP3 POP POP POP JUMP JUMPDEST PUSH1 0x0 DUP2 SWAP1 POP SWAP2 SWAP1 POP JUMP JUMPDEST PUSH1 0x0 DUP2 SWAP1 POP SWAP2 SWAP1 POP JUMP JUMPDEST PUSH1 0x0 PUSH3 0x1160 PUSH3 0x115A PUSH3 0x1154 DUP5 PUSH3 0x112B JUMP JUMPDEST PUSH3 0x1135 JUMP JUMPDEST PUSH3 0x112B JUMP JUMPDEST SWAP1 POP SWAP2 SWAP1 POP JUMP JUMPDEST PUSH1 0x0 DUP2 SWAP1 POP SWAP2 SWAP1 POP JUMP JUMPDEST PUSH3 0x117C DUP4 PUSH3 0x113F JUMP JUMPDEST PUSH3 0x1194 PUSH3 0x118B DUP3 PUSH3 0x1167 JUMP JUMPDEST DUP5 DUP5 SLOAD PUSH3 0x10D5 JUMP JUMPDEST DUP3 SSTORE POP POP POP POP JUMP JUMPDEST PUSH1 0x0 SWAP1 JUMP JUMPDEST PUSH3 0x11AB PUSH3 0x119C JUMP JUMPDEST PUSH3 0x11B8 DUP2 DUP5 DUP5 PUSH3 0x1171 JUMP JUMPDEST POP POP POP JUMP JUMPDEST JUMPDEST DUP2 DUP2 LT ISZERO PUSH3 0x11E0 JUMPI PUSH3 0x11D4 PUSH1 0x0 DUP3 PUSH3 0x11A1 JUMP JUMPDEST PUSH1 0x1 DUP2 ADD SWAP1 POP PUSH3 0x11BE JUMP JUMPDEST POP POP JUMP JUMPDEST PUSH1 0x1F DUP3 GT ISZERO PUSH3 0x122F JUMPI PUSH3 0x11F9 DUP2 PUSH3 0x10A3 JUMP JUMPDEST PUSH3 0x1204 DUP5 PUSH3 0x10B8 JUMP JUMPDEST DUP2 ADD PUSH1 0x20 DUP6 LT ISZERO PUSH3 0x1214 JUMPI DUP2 SWAP1 POP JUMPDEST PUSH3 0x122C PUSH3 0x1223 DUP6 PUSH3 0x10B8 JUMP JUMPDEST DUP4 ADD DUP3 PUSH3 0x11BD JUMP JUMPDEST POP POP JUMPDEST POP POP POP JUMP JUMPDEST PUSH1 0x0 DUP3 DUP3 SHR SWAP1 POP SWAP3 SWAP2 POP POP JUMP JUMPDEST PUSH1 0x0 PUSH3 0x1254 PUSH1 0x0 NOT DUP5 PUSH1 0x8 MUL PUSH3 0x1234 JUMP JUMPDEST NOT DUP1 DUP4 AND SWAP2 POP POP SWAP3 SWAP2 POP POP JUMP JUMPDEST PUSH1 0x0 PUSH3 0x126F DUP4 DUP4 PUSH3 0x1241 JUMP JUMPDEST SWAP2 POP DUP3 PUSH1 0x2 MUL DUP3 OR SWAP1 POP SWAP3 SWAP2 POP POP JUMP JUMPDEST PUSH3 0x128A DUP3 PUSH3 0x1005 JUMP JUMPDEST PUSH8 0xFFFFFFFFFFFFFFFF DUP2 GT ISZERO PUSH3 0x12A6 JUMPI PUSH3 0x12A5 PUSH3 0x1010 JUMP JUMPDEST JUMPDEST PUSH3 0x12B2 DUP3 SLOAD PUSH3 0x106E JUMP JUMPDEST PUSH3 0x12BF DUP3 DUP3 DUP6 PUSH3 0x11E4 JUMP JUMPDEST PUSH1 0x0 PUSH1 0x20 SWAP1 POP PUSH1 0x1F DUP4 GT PUSH1 0x1 DUP2 EQ PUSH3 0x12F7 JUMPI PUSH1 0x0 DUP5 ISZERO PUSH3 0x12E2 JUMPI DUP3 DUP8 ADD MLOAD SWAP1 POP JUMPDEST PUSH3 0x12EE DUP6 DUP3 PUSH3 0x1261 JUMP JUMPDEST DUP7 SSTORE POP PUSH3 0x135E JUMP JUMPDEST PUSH1 0x1F NOT DUP5 AND PUSH3 0x1307 DUP7 PUSH3 0x10A3 JUMP JUMPDEST PUSH1 0x0 JUMPDEST DUP3 DUP2 LT ISZERO PUSH3 0x1331 JUMPI DUP5 DUP10 ADD MLOAD DUP3 SSTORE PUSH1 0x1 DUP3 ADD SWAP2 POP PUSH1 0x20 DUP6 ADD SWAP5 POP PUSH1 0x20 DUP2 ADD SWAP1 POP PUSH3 0x130A JUMP JUMPDEST DUP7 DUP4 LT ISZERO PUSH3 0x1351 JUMPI DUP5 DUP10 ADD MLOAD PUSH3 0x134D PUSH1 0x1F DUP10 AND DUP3 PUSH3 0x1241 JUMP JUMPDEST DUP4 SSTORE POP JUMPDEST PUSH1 0x1 PUSH1 0x2 DUP9 MUL ADD DUP9 SSTORE POP POP POP JUMPDEST POP POP POP POP POP POP JUMP JUMPDEST PUSH1 0x0 DUP3 DUP3 MSTORE PUSH1 0x20 DUP3 ADD SWAP1 POP SWAP3 SWAP2 POP POP JUMP JUMPDEST PUSH32 0x496E76616C696420616464726573730000000000000000000000000000000000 PUSH1 0x0 DUP3 ADD MSTORE POP JUMP JUMPDEST PUSH1 0x0 PUSH3 0x13AF PUSH1 0xF DUP4 PUSH3 0x1366 JUMP JUMPDEST SWAP2 POP PUSH3 0x13BC DUP3 PUSH3 0x1377 JUMP JUMPDEST PUSH1 0x20 DUP3 ADD SWAP1 POP SWAP2 SWAP1 POP JUMP JUMPDEST PUSH1 0x0 PUSH1 0x20 DUP3 ADD SWAP1 POP DUP2 DUP2 SUB PUSH1 0x0 DUP4 ADD MSTORE PUSH3 0x13E2 DUP2 PUSH3 0x13A0 JUMP JUMPDEST SWAP1 POP SWAP2 SWAP1 POP JUMP JUMPDEST PUSH32 0x4E487B7100000000000000000000000000000000000000000000000000000000 PUSH1 0x0 MSTORE PUSH1 0x11 PUSH1 0x4 MSTORE PUSH1 0x24 PUSH1 0x0 REVERT JUMPDEST PUSH1 0x0 PUSH3 0x1425 DUP3 PUSH3 0x112B JUMP JUMPDEST SWAP2 POP PUSH3 0x1432 DUP4 PUSH3 0x112B JUMP JUMPDEST SWAP3 POP DUP3 DUP3 MUL PUSH3 0x1442 DUP2 PUSH3 0x112B JUMP JUMPDEST SWAP2 POP DUP3 DUP3 DIV DUP5 EQ DUP4 ISZERO OR PUSH3 0x145C JUMPI PUSH3 0x145B PUSH3 0x13E9 JUMP JUMPDEST JUMPDEST POP SWAP3 SWAP2 POP POP JUMP JUMPDEST PUSH32 0x4E487B7100000000000000000000000000000000000000000000000000000000 PUSH1 0x0 MSTORE PUSH1 0x12 PUSH1 0x4 MSTORE PUSH1 0x24 PUSH1 0x0 REVERT JUMPDEST PUSH1 0x0 PUSH3 0x149F DUP3 PUSH3 0x112B JUMP JUMPDEST SWAP2 POP PUSH3 0x14AC DUP4 PUSH3 0x112B JUMP JUMPDEST SWAP3 POP DUP3 PUSH3 0x14BF JUMPI PUSH3 0x14BE PUSH3 0x1463 JUMP JUMPDEST JUMPDEST DUP3 DUP3 DIV SWAP1 POP SWAP3 SWAP2 POP POP JUMP JUMPDEST PUSH32 0x45524332303A206D696E7420746F20746865207A65726F206164647265737300 PUSH1 0x0 DUP3 ADD MSTORE POP JUMP JUMPDEST PUSH1 0x0 PUSH3 0x1502 PUSH1 0x1F DUP4 PUSH3 0x1366 JUMP JUMPDEST SWAP2 POP PUSH3 0x150F DUP3 PUSH3 0x14CA JUMP JUMPDEST PUSH1 0x20 DUP3 ADD SWAP1 POP SWAP2 SWAP1 POP JUMP JUMPDEST PUSH1 0x0 PUSH1 0x20 DUP3 ADD SWAP1 POP DUP2 DUP2 SUB PUSH1 0x0 DUP4 ADD MSTORE PUSH3 0x1535 DUP2 PUSH3 0x14F3 JUMP JUMPDEST SWAP1 POP SWAP2 SWAP1 POP JUMP JUMPDEST PUSH1 0x0 PUSH3 0x1549 DUP3 PUSH3 0x112B JUMP JUMPDEST SWAP2 POP PUSH3 0x1556 DUP4 PUSH3 0x112B JUMP JUMPDEST SWAP3 POP DUP3 DUP3 ADD SWAP1 POP DUP1 DUP3 GT ISZERO PUSH3 0x1571 JUMPI PUSH3 0x1570 PUSH3 0x13E9 JUMP JUMPDEST JUMPDEST SWAP3 SWAP2 POP POP JUMP JUMPDEST PUSH3 0x1582 DUP2 PUSH3 0x112B JUMP JUMPDEST DUP3 MSTORE POP POP JUMP JUMPDEST PUSH1 0x0 PUSH1 0x20 DUP3 ADD SWAP1 POP PUSH3 0x159F PUSH1 0x0 DUP4 ADD DUP5 PUSH3 0x1577 JUMP JUMPDEST SWAP3 SWAP2 POP POP JUMP JUMPDEST PUSH32 0x45524332303A207472616E736665722066726F6D20746865207A65726F206164 PUSH1 0x0 DUP3 ADD MSTORE PUSH32 0x6472657373000000000000000000000000000000000000000000000000000000 PUSH1 0x20 DUP3 ADD MSTORE POP JUMP JUMPDEST PUSH1 0x0 PUSH3 0x1603 PUSH1 0x25 DUP4 PUSH3 0x1366 JUMP JUMPDEST SWAP2 POP PUSH3 0x1610 DUP3 PUSH3 0x15A5 JUMP JUMPDEST PUSH1 0x40 DUP3 ADD SWAP1 POP SWAP2 SWAP1 POP JUMP JUMPDEST PUSH1 0x0 PUSH1 0x20 DUP3 ADD SWAP1 POP DUP2 DUP2 SUB PUSH1 0x0 DUP4 ADD MSTORE PUSH3 0x1636 DUP2 PUSH3 0x15F4 JUMP JUMPDEST SWAP1 POP SWAP2 SWAP1 POP JUMP JUMPDEST PUSH32 0x45524332303A207472616E7366657220746F20746865207A65726F2061646472 PUSH1 0x0 DUP3 ADD MSTORE PUSH32 0x6573730000000000000000000000000000000000000000000000000000000000 PUSH1 0x20 DUP3 ADD MSTORE POP JUMP JUMPDEST PUSH1 0x0 PUSH3 0x169B PUSH1 0x23 DUP4 PUSH3 0x1366 JUMP JUMPDEST SWAP2 POP PUSH3 0x16A8 DUP3 PUSH3 0x163D JUMP JUMPDEST PUSH1 0x40 DUP3 ADD SWAP1 POP SWAP2 SWAP1 POP JUMP JUMPDEST PUSH1 0x0 PUSH1 0x20 DUP3 ADD SWAP1 POP DUP2 DUP2 SUB PUSH1 0x0 DUP4 ADD MSTORE PUSH3 0x16CE DUP2 PUSH3 0x168C JUMP JUMPDEST SWAP1 POP SWAP2 SWAP1 POP JUMP JUMPDEST PUSH32 0x45524332303A207472616E7366657220616D6F756E7420657863656564732062 PUSH1 0x0 DUP3 ADD MSTORE PUSH32 0x616C616E63650000000000000000000000000000000000000000000000000000 PUSH1 0x20 DUP3 ADD MSTORE POP JUMP JUMPDEST PUSH1 0x0 PUSH3 0x1733 PUSH1 0x26 DUP4 PUSH3 0x1366 JUMP JUMPDEST SWAP2 POP PUSH3 0x1740 DUP3 PUSH3 0x16D5 JUMP JUMPDEST PUSH1 0x40 DUP3 ADD SWAP1 POP SWAP2 SWAP1 POP JUMP JUMPDEST PUSH1 0x0 PUSH1 0x20 DUP3 ADD SWAP1 POP DUP2 DUP2 SUB PUSH1 0x0 DUP4 ADD MSTORE PUSH3 0x1766 DUP2 PUSH3 0x1724 JUMP JUMPDEST SWAP1 POP SWAP2 SWAP1 POP JUMP JUMPDEST PUSH1 0x80 MLOAD PUSH1 0xA0 MLOAD PUSH1 0xC0 MLOAD PUSH1 0xE0 MLOAD PUSH2 0x100 MLOAD PUSH2 0x120 MLOAD PUSH2 0x140 MLOAD PUSH2 0x160 MLOAD PUSH2 0x180 MLOAD PUSH2 0x1EE3 PUSH3 0x181D PUSH1 0x0 CODECOPY PUSH1 0x0 DUP2 DUP2 PUSH2 0x729 ADD MSTORE PUSH2 0xDA2 ADD MSTORE PUSH1 0x0 DUP2 DUP2 PUSH2 0x8B6 ADD MSTORE PUSH2 0xD3B ADD MSTORE PUSH1 0x0 DUP2 DUP2 PUSH2 0xCC3 ADD MSTORE PUSH2 0xE71 ADD MSTORE PUSH1 0x0 PUSH2 0x8DA ADD MSTORE PUSH1 0x0 DUP2 DUP2 PUSH2 0x5E5 ADD MSTORE PUSH2 0xC4C ADD MSTORE PUSH1 0x0 DUP2 DUP2 PUSH2 0x892 ADD MSTORE PUSH2 0xBD5 ADD MSTORE PUSH1 0x0 DUP2 DUP2 PUSH2 0x65F ADD MSTORE PUSH2 0xB5E ADD MSTORE PUSH1 0x0 DUP2 DUP2 PUSH2 0x8FE ADD MSTORE PUSH2 0xAE7 ADD MSTORE PUSH1 0x0 DUP2 DUP2 PUSH2 0x74D ADD MSTORE DUP2 DUP2 PUSH2 0x832 ADD MSTORE PUSH2 0xDC6 ADD MSTORE PUSH2 0x1EE3 PUSH1 0x0 RETURN INVALID PUSH1 0x80 PUSH1 0x40 MSTORE CALLVALUE DUP1 ISZERO PUSH2 0x10 JUMPI PUSH1 0x0 DUP1 REVERT JUMPDEST POP PUSH1 0x4 CALLDATASIZE LT PUSH2 0x18E JUMPI PUSH1 0x0 CALLDATALOAD PUSH1 0xE0 SHR DUP1 PUSH4 0x7B929C27 GT PUSH2 0xDE JUMPI DUP1 PUSH4 0xA9059CBB GT PUSH2 0x97 JUMPI DUP1 PUSH4 0xD662321B GT PUSH2 0x71 JUMPI DUP1 PUSH4 0xD662321B EQ PUSH2 0x46B JUMPI DUP1 PUSH4 0xDC1FB5A5 EQ PUSH2 0x489 JUMPI DUP1 PUSH4 0xDD62ED3E EQ PUSH2 0x4A7 JUMPI DUP1 PUSH4 0xE377AC31 EQ PUSH2 0x4D7 JUMPI PUSH2 0x18E JUMP JUMPDEST DUP1 PUSH4 0xA9059CBB EQ PUSH2 0x413 JUMPI DUP1 PUSH4 0xAE15A8F6 EQ PUSH2 0x443 JUMPI DUP1 PUSH4 0xD52D4834 EQ PUSH2 0x461 JUMPI PUSH2 0x18E JUMP JUMPDEST DUP1 PUSH4 0x7B929C27 EQ PUSH2 0x34D JUMPI DUP1 PUSH4 0x7FCE0203 EQ PUSH2 0x36B JUMPI DUP1 PUSH4 0x8AC27F5F EQ PUSH2 0x389 JUMPI DUP1 PUSH4 0x934AA023 EQ PUSH2 0x3A7 JUMPI DUP1 PUSH4 0x95D89B41 EQ PUSH2 0x3C5 JUMPI DUP1 PUSH4 0xA457C2D7 EQ PUSH2 0x3E3 JUMPI PUSH2 0x18E JUMP JUMPDEST DUP1 PUSH4 0x313CE567 GT PUSH2 0x14B JUMPI DUP1 PUSH4 0x41FBB050 GT PUSH2 0x125 JUMPI DUP1 PUSH4 0x41FBB050 EQ PUSH2 0x2D7 JUMPI DUP1 PUSH4 0x67FEA82E EQ PUSH2 0x2F5 JUMPI DUP1 PUSH4 0x70A08231 EQ PUSH2 0x313 JUMPI DUP1 PUSH4 0x75BF4D6E EQ PUSH2 0x343 JUMPI PUSH2 0x18E JUMP JUMPDEST DUP1 PUSH4 0x313CE567 EQ PUSH2 0x26B JUMPI DUP1 PUSH4 0x39509351 EQ PUSH2 0x289 JUMPI DUP1 PUSH4 0x3D3D937D EQ PUSH2 0x2B9 JUMPI PUSH2 0x18E JUMP JUMPDEST DUP1 PUSH4 0x6FDDE03 EQ PUSH2 0x193 JUMPI DUP1 PUSH4 0x95EA7B3 EQ PUSH2 0x1B1 JUMPI DUP1 PUSH4 0x18160DDD EQ PUSH2 0x1E1 JUMPI DUP1 PUSH4 0x23B872DD EQ PUSH2 0x1FF JUMPI DUP1 PUSH4 0x2D3E474A EQ PUSH2 0x22F JUMPI DUP1 PUSH4 0x2FF2E9DC EQ PUSH2 0x24D JUMPI JUMPDEST PUSH1 0x0 DUP1 REVERT JUMPDEST PUSH2 0x19B PUSH2 0x4F5 JUMP JUMPDEST PUSH1 0x40 MLOAD PUSH2 0x1A8 SWAP2 SWAP1 PUSH2 0x15D0 JUMP JUMPDEST PUSH1 0x40 MLOAD DUP1 SWAP2 SUB SWAP1 RETURN JUMPDEST PUSH2 0x1CB PUSH1 0x4 DUP1 CALLDATASIZE SUB DUP2 ADD SWAP1 PUSH2 0x1C6 SWAP2 SWAP1 PUSH2 0x168B JUMP JUMPDEST PUSH2 0x587 JUMP JUMPDEST PUSH1 0x40 MLOAD PUSH2 0x1D8 SWAP2 SWAP1 PUSH2 0x16E6 JUMP JUMPDEST PUSH1 0x40 MLOAD DUP1 SWAP2 SUB SWAP1 RETURN JUMPDEST PUSH2 0x1E9 PUSH2 0x5AA JUMP JUMPDEST PUSH1 0x40 MLOAD PUSH2 0x1F6 SWAP2 SWAP1 PUSH2 0x1710 JUMP JUMPDEST PUSH1 0x40 MLOAD DUP1 SWAP2 SUB SWAP1 RETURN JUMPDEST PUSH2 0x219 PUSH1 0x4 DUP1 CALLDATASIZE SUB DUP2 ADD SWAP1 PUSH2 0x214 SWAP2 SWAP1 PUSH2 0x172B JUMP JUMPDEST PUSH2 0x5B4 JUMP JUMPDEST PUSH1 0x40 MLOAD PUSH2 0x226 SWAP2 SWAP1 PUSH2 0x16E6 JUMP JUMPDEST PUSH1 0x40 MLOAD DUP1 SWAP2 SUB SWAP1 RETURN JUMPDEST PUSH2 0x237 PUSH2 0x5E3 JUMP JUMPDEST PUSH1 0x40 MLOAD PUSH2 0x244 SWAP2 SWAP1 PUSH2 0x178D JUMP JUMPDEST PUSH1 0x40 MLOAD DUP1 SWAP2 SUB SWAP1 RETURN JUMPDEST PUSH2 0x255 PUSH2 0x607 JUMP JUMPDEST PUSH1 0x40 MLOAD PUSH2 0x262 SWAP2 SWAP1 PUSH2 0x1710 JUMP JUMPDEST PUSH1 0x40 MLOAD DUP1 SWAP2 SUB SWAP1 RETURN JUMPDEST PUSH2 0x273 PUSH2 0x617 JUMP JUMPDEST PUSH1 0x40 MLOAD PUSH2 0x280 SWAP2 SWAP1 PUSH2 0x17C4 JUMP JUMPDEST PUSH1 0x40 MLOAD DUP1 SWAP2 SUB SWAP1 RETURN JUMPDEST PUSH2 0x2A3 PUSH1 0x4 DUP1 CALLDATASIZE SUB DUP2 ADD SWAP1 PUSH2 0x29E SWAP2 SWAP1 PUSH2 0x168B JUMP JUMPDEST PUSH2 0x620 JUMP JUMPDEST PUSH1 0x40 MLOAD PUSH2 0x2B0 SWAP2 SWAP1 PUSH2 0x16E6 JUMP JUMPDEST PUSH1 0x40 MLOAD DUP1 SWAP2 SUB SWAP1 RETURN JUMPDEST PUSH2 0x2C1 PUSH2 0x657 JUMP JUMPDEST PUSH1 0x40 MLOAD PUSH2 0x2CE SWAP2 SWAP1 PUSH2 0x1710 JUMP JUMPDEST PUSH1 0x40 MLOAD DUP1 SWAP2 SUB SWAP1 RETURN JUMPDEST PUSH2 0x2DF PUSH2 0x65D JUMP JUMPDEST PUSH1 0x40 MLOAD PUSH2 0x2EC SWAP2 SWAP1 PUSH2 0x178D JUMP JUMPDEST PUSH1 0x40 MLOAD DUP1 SWAP2 SUB SWAP1 RETURN JUMPDEST PUSH2 0x2FD PUSH2 0x681 JUMP JUMPDEST PUSH1 0x40 MLOAD PUSH2 0x30A SWAP2 SWAP1 PUSH2 0x1710 JUMP JUMPDEST PUSH1 0x40 MLOAD DUP1 SWAP2 SUB SWAP1 RETURN JUMPDEST PUSH2 0x32D PUSH1 0x4 DUP1 CALLDATASIZE SUB DUP2 ADD SWAP1 PUSH2 0x328 SWAP2 SWAP1 PUSH2 0x17DF JUMP JUMPDEST PUSH2 0x687 JUMP JUMPDEST PUSH1 0x40 MLOAD PUSH2 0x33A SWAP2 SWAP1 PUSH2 0x1710 JUMP JUMPDEST PUSH1 0x40 MLOAD DUP1 SWAP2 SUB SWAP1 RETURN JUMPDEST PUSH2 0x34B PUSH2 0x6CF JUMP JUMPDEST STOP JUMPDEST PUSH2 0x355 PUSH2 0x890 JUMP JUMPDEST PUSH1 0x40 MLOAD PUSH2 0x362 SWAP2 SWAP1 PUSH2 0x178D JUMP JUMPDEST PUSH1 0x40 MLOAD DUP1 SWAP2 SUB SWAP1 RETURN JUMPDEST PUSH2 0x373 PUSH2 0x8B4 JUMP JUMPDEST PUSH1 0x40 MLOAD PUSH2 0x380 SWAP2 SWAP1 PUSH2 0x178D JUMP JUMPDEST PUSH1 0x40 MLOAD DUP1 SWAP2 SUB SWAP1 RETURN JUMPDEST PUSH2 0x391 PUSH2 0x8D8 JUMP JUMPDEST PUSH1 0x40 MLOAD PUSH2 0x39E SWAP2 SWAP1 PUSH2 0x178D JUMP JUMPDEST PUSH1 0x40 MLOAD DUP1 SWAP2 SUB SWAP1 RETURN JUMPDEST PUSH2 0x3AF PUSH2 0x8FC JUMP JUMPDEST PUSH1 0x40 MLOAD PUSH2 0x3BC SWAP2 SWAP1 PUSH2 0x178D JUMP JUMPDEST PUSH1 0x40 MLOAD DUP1 SWAP2 SUB SWAP1 RETURN JUMPDEST PUSH2 0x3CD PUSH2 0x920 JUMP JUMPDEST PUSH1 0x40 MLOAD PUSH2 0x3DA SWAP2 SWAP1 PUSH2 0x15D0 JUMP JUMPDEST PUSH1 0x40 MLOAD DUP1 SWAP2 SUB SWAP1 RETURN JUMPDEST PUSH2 0x3FD PUSH1 0x4 DUP1 CALLDATASIZE SUB DUP2 ADD SWAP1 PUSH2 0x3F8 SWAP2 SWAP1 PUSH2 0x168B JUMP JUMPDEST PUSH2 0x9B2 JUMP JUMPDEST PUSH1 0x40 MLOAD PUSH2 0x40A SWAP2 SWAP1 PUSH2 0x16E6 JUMP JUMPDEST PUSH1 0x40 MLOAD DUP1 SWAP2 SUB SWAP1 RETURN JUMPDEST PUSH2 0x42D PUSH1 0x4 DUP1 CALLDATASIZE SUB DUP2 ADD SWAP1 PUSH2 0x428 SWAP2 SWAP1 PUSH2 0x168B JUMP JUMPDEST PUSH2 0xA29 JUMP JUMPDEST PUSH1 0x40 MLOAD PUSH2 0x43A SWAP2 SWAP1 PUSH2 0x16E6 JUMP JUMPDEST PUSH1 0x40 MLOAD DUP1 SWAP2 SUB SWAP1 RETURN JUMPDEST PUSH2 0x44B PUSH2 0xA4C JUMP JUMPDEST PUSH1 0x40 MLOAD PUSH2 0x458 SWAP2 SWAP1 PUSH2 0x1710 JUMP JUMPDEST PUSH1 0x40 MLOAD DUP1 SWAP2 SUB SWAP1 RETURN JUMPDEST PUSH2 0x469 PUSH2 0xA51 JUMP JUMPDEST STOP JUMPDEST PUSH2 0x473 PUSH2 0xDA0 JUMP JUMPDEST PUSH1 0x40 MLOAD PUSH2 0x480 SWAP2 SWAP1 PUSH2 0x1710 JUMP JUMPDEST PUSH1 0x40 MLOAD DUP1 SWAP2 SUB SWAP1 RETURN JUMPDEST PUSH2 0x491 PUSH2 0xDC4 JUMP JUMPDEST PUSH1 0x40 MLOAD PUSH2 0x49E SWAP2 SWAP1 PUSH2 0x178D JUMP JUMPDEST PUSH1 0x40 MLOAD DUP1 SWAP2 SUB SWAP1 RETURN JUMPDEST PUSH2 0x4C1 PUSH1 0x4 DUP1 CALLDATASIZE SUB DUP2 ADD SWAP1 PUSH2 0x4BC SWAP2 SWAP1 PUSH2 0x180C JUMP JUMPDEST PUSH2 0xDE8 JUMP JUMPDEST PUSH1 0x40 MLOAD PUSH2 0x4CE SWAP2 SWAP1 PUSH2 0x1710 JUMP JUMPDEST PUSH1 0x40 MLOAD DUP1 SWAP2 SUB SWAP1 RETURN JUMPDEST PUSH2 0x4DF PUSH2 0xE6F JUMP JUMPDEST PUSH1 0x40 MLOAD PUSH2 0x4EC SWAP2 SWAP1 PUSH2 0x178D JUMP JUMPDEST PUSH1 0x40 MLOAD DUP1 SWAP2 SUB SWAP1 RETURN JUMPDEST PUSH1 0x60 PUSH1 0x3 DUP1 SLOAD PUSH2 0x504 SWAP1 PUSH2 0x187B JUMP JUMPDEST DUP1 PUSH1 0x1F ADD PUSH1 0x20 DUP1 SWAP2 DIV MUL PUSH1 0x20 ADD PUSH1 0x40 MLOAD SWAP1 DUP2 ADD PUSH1 0x40 MSTORE DUP1 SWAP3 SWAP2 SWAP1 DUP2 DUP2 MSTORE PUSH1 0x20 ADD DUP3 DUP1 SLOAD PUSH2 0x530 SWAP1 PUSH2 0x187B JUMP JUMPDEST DUP1 ISZERO PUSH2 0x57D JUMPI DUP1 PUSH1 0x1F LT PUSH2 0x552 JUMPI PUSH2 0x100 DUP1 DUP4 SLOAD DIV MUL DUP4 MSTORE SWAP2 PUSH1 0x20 ADD SWAP2 PUSH2 0x57D JUMP JUMPDEST DUP3 ADD SWAP2 SWAP1 PUSH1 0x0 MSTORE PUSH1 0x20 PUSH1 0x0 KECCAK256 SWAP1 JUMPDEST DUP2 SLOAD DUP2 MSTORE SWAP1 PUSH1 0x1 ADD SWAP1 PUSH1 0x20 ADD DUP1 DUP4 GT PUSH2 0x560 JUMPI DUP3 SWAP1 SUB PUSH1 0x1F AND DUP3 ADD SWAP2 JUMPDEST POP POP POP POP POP SWAP1 POP SWAP1 JUMP JUMPDEST PUSH1 0x0 DUP1 PUSH2 0x592 PUSH2 0xE93 JUMP JUMPDEST SWAP1 POP PUSH2 0x59F DUP2 DUP6 DUP6 PUSH2 0xE9B JUMP JUMPDEST PUSH1 0x1 SWAP2 POP POP SWAP3 SWAP2 POP POP JUMP JUMPDEST PUSH1 0x0 PUSH1 0x2 SLOAD SWAP1 POP SWAP1 JUMP JUMPDEST PUSH1 0x0 DUP1 PUSH2 0x5BF PUSH2 0xE93 JUMP JUMPDEST SWAP1 POP PUSH2 0x5CC DUP6 DUP3 DUP6 PUSH2 0x1064 JUMP JUMPDEST PUSH2 0x5D7 DUP6 DUP6 DUP6 PUSH2 0x10F0 JUMP JUMPDEST PUSH1 0x1 SWAP2 POP POP SWAP4 SWAP3 POP POP POP JUMP JUMPDEST PUSH32 0x0 DUP2 JUMP JUMPDEST PUSH12 0x19D971E4FE8401E740000000 DUP2 JUMP JUMPDEST PUSH1 0x0 PUSH1 0x12 SWAP1 POP SWAP1 JUMP JUMPDEST PUSH1 0x0 DUP1 PUSH2 0x62B PUSH2 0xE93 JUMP JUMPDEST SWAP1 POP PUSH2 0x64C DUP2 DUP6 DUP6 PUSH2 0x63D DUP6 DUP10 PUSH2 0xDE8 JUMP JUMPDEST PUSH2 0x647 SWAP2 SWAP1 PUSH2 0x18DB JUMP JUMPDEST PUSH2 0xE9B JUMP JUMPDEST PUSH1 0x1 SWAP2 POP POP SWAP3 SWAP2 POP POP JUMP JUMPDEST PUSH1 0x5 SLOAD DUP2 JUMP JUMPDEST PUSH32 0x0 DUP2 JUMP JUMPDEST PUSH1 0x6 SLOAD DUP2 JUMP JUMPDEST PUSH1 0x0 DUP1 PUSH1 0x0 DUP4 PUSH20 0xFFFFFFFFFFFFFFFFFFFFFFFFFFFFFFFFFFFFFFFF AND PUSH20 0xFFFFFFFFFFFFFFFFFFFFFFFFFFFFFFFFFFFFFFFF AND DUP2 MSTORE PUSH1 0x20 ADD SWAP1 DUP2 MSTORE PUSH1 0x20 ADD PUSH1 0x0 KECCAK256 SLOAD SWAP1 POP SWAP2 SWAP1 POP JUMP JUMPDEST PUSH2 0x6E3 PUSH8 0xA3E615225DEA3945 PUSH1 0xC0 SHL PUSH2 0x1366 JUMP JUMPDEST PUSH2 0x6F7 PUSH8 0xA0E2E4D5FDCB815C PUSH1 0xC0 SHL PUSH2 0x1366 JUMP JUMPDEST PUSH2 0x70B PUSH8 0xED43B28E9341BFDD PUSH1 0xC0 SHL PUSH2 0x1366 JUMP JUMPDEST PUSH4 0x1E13380 PUSH1 0x5 SLOAD PUSH2 0x71D SWAP2 SWAP1 PUSH2 0x18DB JUMP JUMPDEST TIMESTAMP LT ISZERO DUP1 ISZERO PUSH2 0x773 JUMPI POP PUSH32 0x0 PUSH2 0x771 PUSH32 0x0 PUSH2 0x687 JUMP JUMPDEST GT JUMPDEST ISZERO PUSH2 0x879 JUMPI PUSH2 0x78C PUSH8 0xCFE175C27984E3EE PUSH1 0xC0 SHL PUSH2 0x1366 JUMP JUMPDEST PUSH2 0x7A0 PUSH8 0xE465BB0E23AE1AED PUSH1 0xC0 SHL PUSH2 0x1366 JUMP JUMPDEST PUSH2 0x7B4 PUSH8 0x6DACA51DC85D88C6 PUSH1 0xC0 SHL PUSH2 0x1366 JUMP JUMPDEST PUSH1 0x0 PUSH2 0x7BE PUSH2 0x5AA JUMP JUMPDEST SWAP1 POP PUSH2 0x7D4 PUSH8 0xACE93F48F63B0ECA PUSH1 0xC0 SHL PUSH2 0x1366 JUMP JUMPDEST PUSH2 0x7E8 PUSH8 0x2D532ABB39BF2C25 PUSH1 0xC0 SHL PUSH2 0x1366 JUMP JUMPDEST PUSH1 0x0 PUSH1 0x64 PUSH1 0x3 DUP4 PUSH2 0x7F9 SWAP2 SWAP1 PUSH2 0x190F JUMP JUMPDEST PUSH2 0x803 SWAP2 SWAP1 PUSH2 0x1980 JUMP JUMPDEST SWAP1 POP PUSH2 0x819 PUSH8 0x12CDAAB2836BBF52 PUSH1 0xC0 SHL PUSH2 0x1366 JUMP JUMPDEST PUSH2 0x82D PUSH8 0x7F171D75ED087AE9 PUSH1 0xC0 SHL PUSH2 0x1366 JUMP JUMPDEST PUSH2 0x857 PUSH32 0x0 DUP3 PUSH2 0x1369 JUMP JUMPDEST PUSH2 0x86B PUSH8 0x15A1232040478BF1 PUSH1 0xC0 SHL PUSH2 0x1366 JUMP JUMPDEST TIMESTAMP PUSH1 0x5 DUP2 SWAP1 SSTORE POP POP POP PUSH2 0x88E JUMP JUMPDEST PUSH2 0x88D PUSH8 0x6ABDE794D0F078C5 PUSH1 0xC0 SHL PUSH2 0x1366 JUMP JUMPDEST JUMPDEST JUMP JUMPDEST PUSH32 0x0 DUP2 JUMP JUMPDEST PUSH32 0x0 DUP2 JUMP JUMPDEST PUSH32 0x0 DUP2 JUMP JUMPDEST PUSH32 0x0 DUP2 JUMP JUMPDEST PUSH1 0x60 PUSH1 0x4 DUP1 SLOAD PUSH2 0x92F SWAP1 PUSH2 0x187B JUMP JUMPDEST DUP1 PUSH1 0x1F ADD PUSH1 0x20 DUP1 SWAP2 DIV MUL PUSH1 0x20 ADD PUSH1 0x40 MLOAD SWAP1 DUP2 ADD PUSH1 0x40 MSTORE DUP1 SWAP3 SWAP2 SWAP1 DUP2 DUP2 MSTORE PUSH1 0x20 ADD DUP3 DUP1 SLOAD PUSH2 0x95B SWAP1 PUSH2 0x187B JUMP JUMPDEST DUP1 ISZERO PUSH2 0x9A8 JUMPI DUP1 PUSH1 0x1F LT PUSH2 0x97D JUMPI PUSH2 0x100 DUP1 DUP4 SLOAD DIV MUL DUP4 MSTORE SWAP2 PUSH1 0x20 ADD SWAP2 PUSH2 0x9A8 JUMP JUMPDEST DUP3 ADD SWAP2 SWAP1 PUSH1 0x0 MSTORE PUSH1 0x20 PUSH1 0x0 KECCAK256 SWAP1 JUMPDEST DUP2 SLOAD DUP2 MSTORE SWAP1 PUSH1 0x1 ADD SWAP1 PUSH1 0x20 ADD DUP1 DUP4 GT PUSH2 0x98B JUMPI DUP3 SWAP1 SUB PUSH1 0x1F AND DUP3 ADD SWAP2 JUMPDEST POP POP POP POP POP SWAP1 POP SWAP1 JUMP JUMPDEST PUSH1 0x0 DUP1 PUSH2 0x9BD PUSH2 0xE93 JUMP JUMPDEST SWAP1 POP PUSH1 0x0 PUSH2 0x9CB DUP3 DUP7 PUSH2 0xDE8 JUMP JUMPDEST SWAP1 POP DUP4 DUP2 LT ISZERO PUSH2 0xA10 JUMPI PUSH1 0x40 MLOAD PUSH32 0x8C379A000000000000000000000000000000000000000000000000000000000 DUP2 MSTORE PUSH1 0x4 ADD PUSH2 0xA07 SWAP1 PUSH2 0x1A23 JUMP JUMPDEST PUSH1 0x40 MLOAD DUP1 SWAP2 SUB SWAP1 REVERT JUMPDEST PUSH2 0xA1D DUP3 DUP7 DUP7 DUP5 SUB PUSH2 0xE9B JUMP JUMPDEST PUSH1 0x1 SWAP3 POP POP POP SWAP3 SWAP2 POP POP JUMP JUMPDEST PUSH1 0x0 DUP1 PUSH2 0xA34 PUSH2 0xE93 JUMP JUMPDEST SWAP1 POP PUSH2 0xA41 DUP2 DUP6 DUP6 PUSH2 0x10F0 JUMP JUMPDEST PUSH1 0x1 SWAP2 POP POP SWAP3 SWAP2 POP POP JUMP JUMPDEST PUSH1 0x3 DUP2 JUMP JUMPDEST PUSH2 0xA65 PUSH8 0xAC47CF26F88795C9 PUSH1 0xC0 SHL PUSH2 0x1366 JUMP JUMPDEST PUSH2 0xA79 PUSH8 0xAE746B02326D9C5C PUSH1 0xC0 SHL PUSH2 0x1366 JUMP JUMPDEST PUSH2 0xA8D PUSH8 0x5852138F210EC42D PUSH1 0xC0 SHL PUSH2 0x1366 JUMP JUMPDEST PUSH4 0x5A39A80 PUSH1 0x6 SLOAD PUSH2 0xA9F SWAP2 SWAP1 PUSH2 0x18DB JUMP JUMPDEST TIMESTAMP LT PUSH2 0xD89 JUMPI PUSH2 0xAB9 PUSH8 0xDF2498DE0BA89FF3 PUSH1 0xC0 SHL PUSH2 0x1366 JUMP JUMPDEST PUSH2 0xACD PUSH8 0x1F0E02E72A002396 PUSH1 0xC0 SHL PUSH2 0x1366 JUMP JUMPDEST PUSH2 0xAE1 PUSH8 0xD8AFA81E4ADB1238 PUSH1 0xC0 SHL PUSH2 0x1366 JUMP JUMPDEST PUSH2 0xB30 ADDRESS PUSH32 0x0 PUSH1 0x64 PUSH1 0x14 PUSH12 0x19D971E4FE8401E740000000 PUSH2 0xB21 SWAP2 SWAP1 PUSH2 0x190F JUMP JUMPDEST PUSH2 0xB2B SWAP2 SWAP1 PUSH2 0x1980 JUMP JUMPDEST PUSH2 0x10F0 JUMP JUMPDEST PUSH2 0xB44 PUSH8 0xA8AEBD8D0009EDDF PUSH1 0xC0 SHL PUSH2 0x1366 JUMP JUMPDEST PUSH2 0xB58 PUSH8 0x6A0C36EFC89C95A3 PUSH1 0xC0 SHL PUSH2 0x1366 JUMP JUMPDEST PUSH2 0xBA7 ADDRESS PUSH32 0x0 PUSH1 0x64 PUSH1 0x5 PUSH12 0x19D971E4FE8401E740000000 PUSH2 0xB98 SWAP2 SWAP1 PUSH2 0x190F JUMP JUMPDEST PUSH2 0xBA2 SWAP2 SWAP1 PUSH2 0x1980 JUMP JUMPDEST PUSH2 0x10F0 JUMP JUMPDEST PUSH2 0xBBB PUSH8 0xB2DFF89AF899B620 PUSH1 0xC0 SHL PUSH2 0x1366 JUMP JUMPDEST PUSH2 0xBCF PUSH8 0xEDA9F67EF04948B5 PUSH1 0xC0 SHL PUSH2 0x1366 JUMP JUMPDEST PUSH2 0xC1E ADDRESS PUSH32 0x0 PUSH1 0x64 PUSH1 0x5 PUSH12 0x19D971E4FE8401E740000000 PUSH2 0xC0F SWAP2 SWAP1 PUSH2 0x190F JUMP JUMPDEST PUSH2 0xC19 SWAP2 SWAP1 PUSH2 0x1980 JUMP JUMPDEST PUSH2 0x10F0 JUMP JUMPDEST PUSH2 0xC32 PUSH8 0x10F9C24227CDCE41 PUSH1 0xC0 SHL PUSH2 0x1366 JUMP JUMPDEST PUSH2 0xC46 PUSH8 0xA7D4D28755F3375 PUSH1 0xC0 SHL PUSH2 0x1366 JUMP JUMPDEST PUSH2 0xC95 ADDRESS PUSH32 0x0 PUSH1 0x64 PUSH1 0x3 PUSH12 0x19D971E4FE8401E740000000 PUSH2 0xC86 SWAP2 SWAP1 PUSH2 0x190F JUMP JUMPDEST PUSH2 0xC90 SWAP2 SWAP1 PUSH2 0x1980 JUMP JUMPDEST PUSH2 0x10F0 JUMP JUMPDEST PUSH2 0xCA9 PUSH8 0x5A5FA34C8F16B8B PUSH1 0xC0 SHL PUSH2 0x1366 JUMP JUMPDEST PUSH2 0xCBD PUSH8 0xD126FA5198DFC842 PUSH1 0xC0 SHL PUSH2 0x1366 JUMP JUMPDEST PUSH2 0xD0D ADDRESS PUSH32 0x0 PUSH2 0x3E8 PUSH1 0x19 PUSH12 0x19D971E4FE8401E740000000 PUSH2 0xCFE SWAP2 SWAP1 PUSH2 0x190F JUMP JUMPDEST PUSH2 0xD08 SWAP2 SWAP1 PUSH2 0x1980 JUMP JUMPDEST PUSH2 0x10F0 JUMP JUMPDEST PUSH2 0xD21 PUSH8 0x1553613318A999BE PUSH1 0xC0 SHL PUSH2 0x1366 JUMP JUMPDEST PUSH2 0xD35 PUSH8 0x4DED80B9BE91D2DC PUSH1 0xC0 SHL PUSH2 0x1366 JUMP JUMPDEST PUSH2 0xD84 ADDRESS PUSH32 0x0 PUSH1 0x64 PUSH1 0x1 PUSH12 0x19D971E4FE8401E740000000 PUSH2 0xD75 SWAP2 SWAP1 PUSH2 0x190F JUMP JUMPDEST PUSH2 0xD7F SWAP2 SWAP1 PUSH2 0x1980 JUMP JUMPDEST PUSH2 0x10F0 JUMP JUMPDEST PUSH2 0xD9E JUMP JUMPDEST PUSH2 0xD9D PUSH8 0x253233425EAE5E5B PUSH1 0xC0 SHL PUSH2 0x1366 JUMP JUMPDEST JUMPDEST JUMP JUMPDEST PUSH32 0x0 DUP2 JUMP JUMPDEST PUSH32 0x0 DUP2 JUMP JUMPDEST PUSH1 0x0 PUSH1 0x1 PUSH1 0x0 DUP5 PUSH20 0xFFFFFFFFFFFFFFFFFFFFFFFFFFFFFFFFFFFFFFFF AND PUSH20 0xFFFFFFFFFFFFFFFFFFFFFFFFFFFFFFFFFFFFFFFF AND DUP2 MSTORE PUSH1 0x20 ADD SWAP1 DUP2 MSTORE PUSH1 0x20 ADD PUSH1 0x0 KECCAK256 PUSH1 0x0 DUP4 PUSH20 0xFFFFFFFFFFFFFFFFFFFFFFFFFFFFFFFFFFFFFFFF AND PUSH20 0xFFFFFFFFFFFFFFFFFFFFFFFFFFFFFFFFFFFFFFFF AND DUP2 MSTORE PUSH1 0x20 ADD SWAP1 DUP2 MSTORE PUSH1 0x20 ADD PUSH1 0x0 KECCAK256 SLOAD SWAP1 POP SWAP3 SWAP2 POP POP JUMP JUMPDEST PUSH32 0x0 DUP2 JUMP JUMPDEST PUSH1 0x0 CALLER SWAP1 POP SWAP1 JUMP JUMPDEST PUSH1 0x0 PUSH20 0xFFFFFFFFFFFFFFFFFFFFFFFFFFFFFFFFFFFFFFFF AND DUP4 PUSH20 0xFFFFFFFFFFFFFFFFFFFFFFFFFFFFFFFFFFFFFFFF AND SUB PUSH2 0xF0A JUMPI PUSH1 0x40 MLOAD PUSH32 0x8C379A000000000000000000000000000000000000000000000000000000000 DUP2 MSTORE PUSH1 0x4 ADD PUSH2 0xF01 SWAP1 PUSH2 0x1AB5 JUMP JUMPDEST PUSH1 0x40 MLOAD DUP1 SWAP2 SUB SWAP1 REVERT JUMPDEST PUSH1 0x0 PUSH20 0xFFFFFFFFFFFFFFFFFFFFFFFFFFFFFFFFFFFFFFFF AND DUP3 PUSH20 0xFFFFFFFFFFFFFFFFFFFFFFFFFFFFFFFFFFFFFFFF AND SUB PUSH2 0xF79 JUMPI PUSH1 0x40 MLOAD PUSH32 0x8C379A000000000000000000000000000000000000000000000000000000000 DUP2 MSTORE PUSH1 0x4 ADD PUSH2 0xF70 SWAP1 PUSH2 0x1B47 JUMP JUMPDEST PUSH1 0x40 MLOAD DUP1 SWAP2 SUB SWAP1 REVERT JUMPDEST DUP1 PUSH1 0x1 PUSH1 0x0 DUP6 PUSH20 0xFFFFFFFFFFFFFFFFFFFFFFFFFFFFFFFFFFFFFFFF AND PUSH20 0xFFFFFFFFFFFFFFFFFFFFFFFFFFFFFFFFFFFFFFFF AND DUP2 MSTORE PUSH1 0x20 ADD SWAP1 DUP2 MSTORE PUSH1 0x20 ADD PUSH1 0x0 KECCAK256 PUSH1 0x0 DUP5 PUSH20 0xFFFFFFFFFFFFFFFFFFFFFFFFFFFFFFFFFFFFFFFF AND PUSH20 0xFFFFFFFFFFFFFFFFFFFFFFFFFFFFFFFFFFFFFFFF AND DUP2 MSTORE PUSH1 0x20 ADD SWAP1 DUP2 MSTORE PUSH1 0x20 ADD PUSH1 0x0 KECCAK256 DUP2 SWAP1 SSTORE POP DUP2 PUSH20 0xFFFFFFFFFFFFFFFFFFFFFFFFFFFFFFFFFFFFFFFF AND DUP4 PUSH20 0xFFFFFFFFFFFFFFFFFFFFFFFFFFFFFFFFFFFFFFFF AND PUSH32 0x8C5BE1E5EBEC7D5BD14F71427D1E84F3DD0314C0F7B2291E5B200AC8C7C3B925 DUP4 PUSH1 0x40 MLOAD PUSH2 0x1057 SWAP2 SWAP1 PUSH2 0x1710 JUMP JUMPDEST PUSH1 0x40 MLOAD DUP1 SWAP2 SUB SWAP1 LOG3 POP POP POP JUMP JUMPDEST PUSH1 0x0 PUSH2 0x1070 DUP5 DUP5 PUSH2 0xDE8 JUMP JUMPDEST SWAP1 POP PUSH32 0xFFFFFFFFFFFFFFFFFFFFFFFFFFFFFFFFFFFFFFFFFFFFFFFFFFFFFFFFFFFFFFFF DUP2 EQ PUSH2 0x10EA JUMPI DUP2 DUP2 LT ISZERO PUSH2 0x10DC JUMPI PUSH1 0x40 MLOAD PUSH32 0x8C379A000000000000000000000000000000000000000000000000000000000 DUP2 MSTORE PUSH1 0x4 ADD PUSH2 0x10D3 SWAP1 PUSH2 0x1BB3 JUMP JUMPDEST PUSH1 0x40 MLOAD DUP1 SWAP2 SUB SWAP1 REVERT JUMPDEST PUSH2 0x10E9 DUP5 DUP5 DUP5 DUP5 SUB PUSH2 0xE9B JUMP JUMPDEST JUMPDEST POP POP POP POP JUMP JUMPDEST PUSH1 0x0 PUSH20 0xFFFFFFFFFFFFFFFFFFFFFFFFFFFFFFFFFFFFFFFF AND DUP4 PUSH20 0xFFFFFFFFFFFFFFFFFFFFFFFFFFFFFFFFFFFFFFFF AND SUB PUSH2 0x115F JUMPI PUSH1 0x40 MLOAD PUSH32 0x8C379A000000000000000000000000000000000000000000000000000000000 DUP2 MSTORE PUSH1 0x4 ADD PUSH2 0x1156 SWAP1 PUSH2 0x1C45 JUMP JUMPDEST PUSH1 0x40 MLOAD DUP1 SWAP2 SUB SWAP1 REVERT JUMPDEST PUSH1 0x0 PUSH20 0xFFFFFFFFFFFFFFFFFFFFFFFFFFFFFFFFFFFFFFFF AND DUP3 PUSH20 0xFFFFFFFFFFFFFFFFFFFFFFFFFFFFFFFFFFFFFFFF AND SUB PUSH2 0x11CE JUMPI PUSH1 0x40 MLOAD PUSH32 0x8C379A000000000000000000000000000000000000000000000000000000000 DUP2 MSTORE PUSH1 0x4 ADD PUSH2 0x11C5 SWAP1 PUSH2 0x1CD7 JUMP JUMPDEST PUSH1 0x40 MLOAD DUP1 SWAP2 SUB SWAP1 REVERT JUMPDEST PUSH2 0x11D9 DUP4 DUP4 DUP4 PUSH2 0x1536 JUMP JUMPDEST PUSH1 0x0 DUP1 PUSH1 0x0 DUP6 PUSH20 0xFFFFFFFFFFFFFFFFFFFFFFFFFFFFFFFFFFFFFFFF AND PUSH20 0xFFFFFFFFFFFFFFFFFFFFFFFFFFFFFFFFFFFFFFFF AND DUP2 MSTORE PUSH1 0x20 ADD SWAP1 DUP2 MSTORE PUSH1 0x20 ADD PUSH1 0x0 KECCAK256 SLOAD SWAP1 POP DUP2 DUP2 LT ISZERO PUSH2 0x125F JUMPI PUSH1 0x40 MLOAD PUSH32 0x8C379A000000000000000000000000000000000000000000000000000000000 DUP2 MSTORE PUSH1 0x4 ADD PUSH2 0x1256 SWAP1 PUSH2 0x1D69 JUMP JUMPDEST PUSH1 0x40 MLOAD DUP1 SWAP2 SUB SWAP1 REVERT JUMPDEST DUP2 DUP2 SUB PUSH1 0x0 DUP1 DUP7 PUSH20 0xFFFFFFFFFFFFFFFFFFFFFFFFFFFFFFFFFFFFFFFF AND PUSH20 0xFFFFFFFFFFFFFFFFFFFFFFFFFFFFFFFFFFFFFFFF AND DUP2 MSTORE PUSH1 0x20 ADD SWAP1 DUP2 MSTORE PUSH1 0x20 ADD PUSH1 0x0 KECCAK256 DUP2 SWAP1 SSTORE POP DUP2 PUSH1 0x0 DUP1 DUP6 PUSH20 0xFFFFFFFFFFFFFFFFFFFFFFFFFFFFFFFFFFFFFFFF AND PUSH20 0xFFFFFFFFFFFFFFFFFFFFFFFFFFFFFFFFFFFFFFFF AND DUP2 MSTORE PUSH1 0x20 ADD SWAP1 DUP2 MSTORE PUSH1 0x20 ADD PUSH1 0x0 KECCAK256 PUSH1 0x0 DUP3 DUP3 SLOAD ADD SWAP3 POP POP DUP2 SWAP1 SSTORE POP DUP3 PUSH20 0xFFFFFFFFFFFFFFFFFFFFFFFFFFFFFFFFFFFFFFFF AND DUP5 PUSH20 0xFFFFFFFFFFFFFFFFFFFFFFFFFFFFFFFFFFFFFFFF AND PUSH32 0xDDF252AD1BE2C89B69C2B068FC378DAA952BA7F163C4A11628F55A4DF523B3EF DUP5 PUSH1 0x40 MLOAD PUSH2 0x134D SWAP2 SWAP1 PUSH2 0x1710 JUMP JUMPDEST PUSH1 0x40 MLOAD DUP1 SWAP2 SUB SWAP1 LOG3 PUSH2 0x1360 DUP5 DUP5 DUP5 PUSH2 0x153B JUMP JUMPDEST POP POP POP POP JUMP JUMPDEST POP JUMP JUMPDEST PUSH1 0x0 PUSH20 0xFFFFFFFFFFFFFFFFFFFFFFFFFFFFFFFFFFFFFFFF AND DUP3 PUSH20 0xFFFFFFFFFFFFFFFFFFFFFFFFFFFFFFFFFFFFFFFF AND SUB PUSH2 0x13D8 JUMPI PUSH1 0x40 MLOAD PUSH32 0x8C379A000000000000000000000000000000000000000000000000000000000 DUP2 MSTORE PUSH1 0x4 ADD PUSH2 0x13CF SWAP1 PUSH2 0x1DFB JUMP JUMPDEST PUSH1 0x40 MLOAD DUP1 SWAP2 SUB SWAP1 REVERT JUMPDEST PUSH2 0x13E4 DUP3 PUSH1 0x0 DUP4 PUSH2 0x1536 JUMP JUMPDEST PUSH1 0x0 DUP1 PUSH1 0x0 DUP5 PUSH20 0xFFFFFFFFFFFFFFFFFFFFFFFFFFFFFFFFFFFFFFFF AND PUSH20 0xFFFFFFFFFFFFFFFFFFFFFFFFFFFFFFFFFFFFFFFF AND DUP2 MSTORE PUSH1 0x20 ADD SWAP1 DUP2 MSTORE PUSH1 0x20 ADD PUSH1 0x0 KECCAK256 SLOAD SWAP1 POP DUP2 DUP2 LT ISZERO PUSH2 0x146A JUMPI PUSH1 0x40 MLOAD PUSH32 0x8C379A000000000000000000000000000000000000000000000000000000000 DUP2 MSTORE PUSH1 0x4 ADD PUSH2 0x1461 SWAP1 PUSH2 0x1E8D JUMP JUMPDEST PUSH1 0x40 MLOAD DUP1 SWAP2 SUB SWAP1 REVERT JUMPDEST DUP2 DUP2 SUB PUSH1 0x0 DUP1 DUP6 PUSH20 0xFFFFFFFFFFFFFFFFFFFFFFFFFFFFFFFFFFFFFFFF AND PUSH20 0xFFFFFFFFFFFFFFFFFFFFFFFFFFFFFFFFFFFFFFFF AND DUP2 MSTORE PUSH1 0x20 ADD SWAP1 DUP2 MSTORE PUSH1 0x20 ADD PUSH1 0x0 KECCAK256 DUP2 SWAP1 SSTORE POP DUP2 PUSH1 0x2 PUSH1 0x0 DUP3 DUP3 SLOAD SUB SWAP3 POP POP DUP2 SWAP1 SSTORE POP PUSH1 0x0 PUSH20 0xFFFFFFFFFFFFFFFFFFFFFFFFFFFFFFFFFFFFFFFF AND DUP4 PUSH20 0xFFFFFFFFFFFFFFFFFFFFFFFFFFFFFFFFFFFFFFFF AND PUSH32 0xDDF252AD1BE2C89B69C2B068FC378DAA952BA7F163C4A11628F55A4DF523B3EF DUP5 PUSH1 0x40 MLOAD PUSH2 0x151D SWAP2 SWAP1 PUSH2 0x1710 JUMP JUMPDEST PUSH1 0x40 MLOAD DUP1 SWAP2 SUB SWAP1 LOG3 PUSH2 0x1531 DUP4 PUSH1 0x0 DUP5 PUSH2 0x153B JUMP JUMPDEST POP POP POP JUMP JUMPDEST POP POP POP JUMP JUMPDEST POP POP POP JUMP JUMPDEST PUSH1 0x0 DUP2 MLOAD SWAP1 POP SWAP2 SWAP1 POP JUMP JUMPDEST PUSH1 0x0 DUP3 DUP3 MSTORE PUSH1 0x20 DUP3 ADD SWAP1 POP SWAP3 SWAP2 POP POP JUMP JUMPDEST PUSH1 0x0 JUMPDEST DUP4 DUP2 LT ISZERO PUSH2 0x157A JUMPI DUP1 DUP3 ADD MLOAD DUP2 DUP5 ADD MSTORE PUSH1 0x20 DUP2 ADD SWAP1 POP PUSH2 0x155F JUMP JUMPDEST PUSH1 0x0 DUP5 DUP5 ADD MSTORE POP POP POP POP JUMP JUMPDEST PUSH1 0x0 PUSH1 0x1F NOT PUSH1 0x1F DUP4 ADD AND SWAP1 POP SWAP2 SWAP1 POP JUMP JUMPDEST PUSH1 0x0 PUSH2 0x15A2 DUP3 PUSH2 0x1540 JUMP JUMPDEST PUSH2 0x15AC DUP2 DUP6 PUSH2 0x154B JUMP JUMPDEST SWAP4 POP PUSH2 0x15BC DUP2 DUP6 PUSH1 0x20 DUP7 ADD PUSH2 0x155C JUMP JUMPDEST PUSH2 0x15C5 DUP2 PUSH2 0x1586 JUMP JUMPDEST DUP5 ADD SWAP2 POP POP SWAP3 SWAP2 POP POP JUMP JUMPDEST PUSH1 0x0 PUSH1 0x20 DUP3 ADD SWAP1 POP DUP2 DUP2 SUB PUSH1 0x0 DUP4 ADD MSTORE PUSH2 0x15EA DUP2 DUP5 PUSH2 0x1597 JUMP JUMPDEST SWAP1 POP SWAP3 SWAP2 POP POP JUMP JUMPDEST PUSH1 0x0 DUP1 REVERT JUMPDEST PUSH1 0x0 PUSH20 0xFFFFFFFFFFFFFFFFFFFFFFFFFFFFFFFFFFFFFFFF DUP3 AND SWAP1 POP SWAP2 SWAP1 POP JUMP JUMPDEST PUSH1 0x0 PUSH2 0x1622 DUP3 PUSH2 0x15F7 JUMP JUMPDEST SWAP1 POP SWAP2 SWAP1 POP JUMP JUMPDEST PUSH2 0x1632 DUP2 PUSH2 0x1617 JUMP JUMPDEST DUP2 EQ PUSH2 0x163D JUMPI PUSH1 0x0 DUP1 REVERT JUMPDEST POP JUMP JUMPDEST PUSH1 0x0 DUP2 CALLDATALOAD SWAP1 POP PUSH2 0x164F DUP2 PUSH2 0x1629 JUMP JUMPDEST SWAP3 SWAP2 POP POP JUMP JUMPDEST PUSH1 0x0 DUP2 SWAP1 POP SWAP2 SWAP1 POP JUMP JUMPDEST PUSH2 0x1668 DUP2 PUSH2 0x1655 JUMP JUMPDEST DUP2 EQ PUSH2 0x1673 JUMPI PUSH1 0x0 DUP1 REVERT JUMPDEST POP JUMP JUMPDEST PUSH1 0x0 DUP2 CALLDATALOAD SWAP1 POP PUSH2 0x1685 DUP2 PUSH2 0x165F JUMP JUMPDEST SWAP3 SWAP2 POP POP JUMP JUMPDEST PUSH1 0x0 DUP1 PUSH1 0x40 DUP4 DUP6 SUB SLT ISZERO PUSH2 0x16A2 JUMPI PUSH2 0x16A1 PUSH2 0x15F2 JUMP JUMPDEST JUMPDEST PUSH1 0x0 PUSH2 0x16B0 DUP6 DUP3 DUP7 ADD PUSH2 0x1640 JUMP JUMPDEST SWAP3 POP POP PUSH1 0x20 PUSH2 0x16C1 DUP6 DUP3 DUP7 ADD PUSH2 0x1676 JUMP JUMPDEST SWAP2 POP POP SWAP3 POP SWAP3 SWAP1 POP JUMP JUMPDEST PUSH1 0x0 DUP2 ISZERO ISZERO SWAP1 POP SWAP2 SWAP1 POP JUMP JUMPDEST PUSH2 0x16E0 DUP2 PUSH2 0x16CB JUMP JUMPDEST DUP3 MSTORE POP POP JUMP JUMPDEST PUSH1 0x0 PUSH1 0x20 DUP3 ADD SWAP1 POP PUSH2 0x16FB PUSH1 0x0 DUP4 ADD DUP5 PUSH2 0x16D7 JUMP JUMPDEST SWAP3 SWAP2 POP POP JUMP JUMPDEST PUSH2 0x170A DUP2 PUSH2 0x1655 JUMP JUMPDEST DUP3 MSTORE POP POP JUMP JUMPDEST PUSH1 0x0 PUSH1 0x20 DUP3 ADD SWAP1 POP PUSH2 0x1725 PUSH1 0x0 DUP4 ADD DUP5 PUSH2 0x1701 JUMP JUMPDEST SWAP3 SWAP2 POP POP JUMP JUMPDEST PUSH1 0x0 DUP1 PUSH1 0x0 PUSH1 0x60 DUP5 DUP7 SUB SLT ISZERO PUSH2 0x1744 JUMPI PUSH2 0x1743 PUSH2 0x15F2 JUMP JUMPDEST JUMPDEST PUSH1 0x0 PUSH2 0x1752 DUP7 DUP3 DUP8 ADD PUSH2 0x1640 JUMP JUMPDEST SWAP4 POP POP PUSH1 0x20 PUSH2 0x1763 DUP7 DUP3 DUP8 ADD PUSH2 0x1640 JUMP JUMPDEST SWAP3 POP POP PUSH1 0x40 PUSH2 0x1774 DUP7 DUP3 DUP8 ADD PUSH2 0x1676 JUMP JUMPDEST SWAP2 POP POP SWAP3 POP SWAP3 POP SWAP3 JUMP JUMPDEST PUSH2 0x1787 DUP2 PUSH2 0x1617 JUMP JUMPDEST DUP3 MSTORE POP POP JUMP JUMPDEST PUSH1 0x0 PUSH1 0x20 DUP3 ADD SWAP1 POP PUSH2 0x17A2 PUSH1 0x0 DUP4 ADD DUP5 PUSH2 0x177E JUMP JUMPDEST SWAP3 SWAP2 POP POP JUMP JUMPDEST PUSH1 0x0 PUSH1 0xFF DUP3 AND SWAP1 POP SWAP2 SWAP1 POP JUMP JUMPDEST PUSH2 0x17BE DUP2 PUSH2 0x17A8 JUMP JUMPDEST DUP3 MSTORE POP POP JUMP JUMPDEST PUSH1 0x0 PUSH1 0x20 DUP3 ADD SWAP1 POP PUSH2 0x17D9 PUSH1 0x0 DUP4 ADD DUP5 PUSH2 0x17B5 JUMP JUMPDEST SWAP3 SWAP2 POP POP JUMP JUMPDEST PUSH1 0x0 PUSH1 0x20 DUP3 DUP5 SUB SLT ISZERO PUSH2 0x17F5 JUMPI PUSH2 0x17F4 PUSH2 0x15F2 JUMP JUMPDEST JUMPDEST PUSH1 0x0 PUSH2 0x1803 DUP5 DUP3 DUP6 ADD PUSH2 0x1640 JUMP JUMPDEST SWAP2 POP POP SWAP3 SWAP2 POP POP JUMP JUMPDEST PUSH1 0x0 DUP1 PUSH1 0x40 DUP4 DUP6 SUB SLT ISZERO PUSH2 0x1823 JUMPI PUSH2 0x1822 PUSH2 0x15F2 JUMP JUMPDEST JUMPDEST PUSH1 0x0 PUSH2 0x1831 DUP6 DUP3 DUP7 ADD PUSH2 0x1640 JUMP JUMPDEST SWAP3 POP POP PUSH1 0x20 PUSH2 0x1842 DUP6 DUP3 DUP7 ADD PUSH2 0x1640 JUMP JUMPDEST SWAP2 POP POP SWAP3 POP SWAP3 SWAP1 POP JUMP JUMPDEST PUSH32 0x4E487B7100000000000000000000000000000000000000000000000000000000 PUSH1 0x0 MSTORE PUSH1 0x22 PUSH1 0x4 MSTORE PUSH1 0x24 PUSH1 0x0 REVERT JUMPDEST PUSH1 0x0 PUSH1 0x2 DUP3 DIV SWAP1 POP PUSH1 0x1 DUP3 AND DUP1 PUSH2 0x1893 JUMPI PUSH1 0x7F DUP3 AND SWAP2 POP JUMPDEST PUSH1 0x20 DUP3 LT DUP2 SUB PUSH2 0x18A6 JUMPI PUSH2 0x18A5 PUSH2 0x184C JUMP JUMPDEST JUMPDEST POP SWAP2 SWAP1 POP JUMP JUMPDEST PUSH32 0x4E487B7100000000000000000000000000000000000000000000000000000000 PUSH1 0x0 MSTORE PUSH1 0x11 PUSH1 0x4 MSTORE PUSH1 0x24 PUSH1 0x0 REVERT JUMPDEST PUSH1 0x0 PUSH2 0x18E6 DUP3 PUSH2 0x1655 JUMP JUMPDEST SWAP2 POP PUSH2 0x18F1 DUP4 PUSH2 0x1655 JUMP JUMPDEST SWAP3 POP DUP3 DUP3 ADD SWAP1 POP DUP1 DUP3 GT ISZERO PUSH2 0x1909 JUMPI PUSH2 0x1908 PUSH2 0x18AC JUMP JUMPDEST JUMPDEST SWAP3 SWAP2 POP POP JUMP JUMPDEST PUSH1 0x0 PUSH2 0x191A DUP3 PUSH2 0x1655 JUMP JUMPDEST SWAP2 POP PUSH2 0x1925 DUP4 PUSH2 0x1655 JUMP JUMPDEST SWAP3 POP DUP3 DUP3 MUL PUSH2 0x1933 DUP2 PUSH2 0x1655 JUMP JUMPDEST SWAP2 POP DUP3 DUP3 DIV DUP5 EQ DUP4 ISZERO OR PUSH2 0x194A JUMPI PUSH2 0x1949 PUSH2 0x18AC JUMP JUMPDEST JUMPDEST POP SWAP3 SWAP2 POP POP JUMP JUMPDEST PUSH32 0x4E487B7100000000000000000000000000000000000000000000000000000000 PUSH1 0x0 MSTORE PUSH1 0x12 PUSH1 0x4 MSTORE PUSH1 0x24 PUSH1 0x0 REVERT JUMPDEST PUSH1 0x0 PUSH2 0x198B DUP3 PUSH2 0x1655 JUMP JUMPDEST SWAP2 POP PUSH2 0x1996 DUP4 PUSH2 0x1655 JUMP JUMPDEST SWAP3 POP DUP3 PUSH2 0x19A6 JUMPI PUSH2 0x19A5 PUSH2 0x1951 JUMP JUMPDEST JUMPDEST DUP3 DUP3 DIV SWAP1 POP SWAP3 SWAP2 POP POP JUMP JUMPDEST PUSH32 0x45524332303A2064656372656173656420616C6C6F77616E63652062656C6F77 PUSH1 0x0 DUP3 ADD MSTORE PUSH32 0x207A65726F000000000000000000000000000000000000000000000000000000 PUSH1 0x20 DUP3 ADD MSTORE POP JUMP JUMPDEST PUSH1 0x0 PUSH2 0x1A0D PUSH1 0x25 DUP4 PUSH2 0x154B JUMP JUMPDEST SWAP2 POP PUSH2 0x1A18 DUP3 PUSH2 0x19B1 JUMP JUMPDEST PUSH1 0x40 DUP3 ADD SWAP1 POP SWAP2 SWAP1 POP JUMP JUMPDEST PUSH1 0x0 PUSH1 0x20 DUP3 ADD SWAP1 POP DUP2 DUP2 SUB PUSH1 0x0 DUP4 ADD MSTORE PUSH2 0x1A3C DUP2 PUSH2 0x1A00 JUMP JUMPDEST SWAP1 POP SWAP2 SWAP1 POP JUMP JUMPDEST PUSH32 0x45524332303A20617070726F76652066726F6D20746865207A65726F20616464 PUSH1 0x0 DUP3 ADD MSTORE PUSH32 0x7265737300000000000000000000000000000000000000000000000000000000 PUSH1 0x20 DUP3 ADD MSTORE POP JUMP JUMPDEST PUSH1 0x0 PUSH2 0x1A9F PUSH1 0x24 DUP4 PUSH2 0x154B JUMP JUMPDEST SWAP2 POP PUSH2 0x1AAA DUP3 PUSH2 0x1A43 JUMP JUMPDEST PUSH1 0x40 DUP3 ADD SWAP1 POP SWAP2 SWAP1 POP JUMP JUMPDEST PUSH1 0x0 PUSH1 0x20 DUP3 ADD SWAP1 POP DUP2 DUP2 SUB PUSH1 0x0 DUP4 ADD MSTORE PUSH2 0x1ACE DUP2 PUSH2 0x1A92 JUMP JUMPDEST SWAP1 POP SWAP2 SWAP1 POP JUMP JUMPDEST PUSH32 0x45524332303A20617070726F766520746F20746865207A65726F206164647265 PUSH1 0x0 DUP3 ADD MSTORE PUSH32 0x7373000000000000000000000000000000000000000000000000000000000000 PUSH1 0x20 DUP3 ADD MSTORE POP JUMP JUMPDEST PUSH1 0x0 PUSH2 0x1B31 PUSH1 0x22 DUP4 PUSH2 0x154B JUMP JUMPDEST SWAP2 POP PUSH2 0x1B3C DUP3 PUSH2 0x1AD5 JUMP JUMPDEST PUSH1 0x40 DUP3 ADD SWAP1 POP SWAP2 SWAP1 POP JUMP JUMPDEST PUSH1 0x0 PUSH1 0x20 DUP3 ADD SWAP1 POP DUP2 DUP2 SUB PUSH1 0x0 DUP4 ADD MSTORE PUSH2 0x1B60 DUP2 PUSH2 0x1B24 JUMP JUMPDEST SWAP1 POP SWAP2 SWAP1 POP JUMP JUMPDEST PUSH32 0x45524332303A20696E73756666696369656E7420616C6C6F77616E6365000000 PUSH1 0x0 DUP3 ADD MSTORE POP JUMP JUMPDEST PUSH1 0x0 PUSH2 0x1B9D PUSH1 0x1D DUP4 PUSH2 0x154B JUMP JUMPDEST SWAP2 POP PUSH2 0x1BA8 DUP3 PUSH2 0x1B67 JUMP JUMPDEST PUSH1 0x20 DUP3 ADD SWAP1 POP SWAP2 SWAP1 POP JUMP JUMPDEST PUSH1 0x0 PUSH1 0x20 DUP3 ADD SWAP1 POP DUP2 DUP2 SUB PUSH1 0x0 DUP4 ADD MSTORE PUSH2 0x1BCC DUP2 PUSH2 0x1B90 JUMP JUMPDEST SWAP1 POP SWAP2 SWAP1 POP JUMP JUMPDEST PUSH32 0x45524332303A207472616E736665722066726F6D20746865207A65726F206164 PUSH1 0x0 DUP3 ADD MSTORE PUSH32 0x6472657373000000000000000000000000000000000000000000000000000000 PUSH1 0x20 DUP3 ADD MSTORE POP JUMP JUMPDEST PUSH1 0x0 PUSH2 0x1C2F PUSH1 0x25 DUP4 PUSH2 0x154B JUMP JUMPDEST SWAP2 POP PUSH2 0x1C3A DUP3 PUSH2 0x1BD3 JUMP JUMPDEST PUSH1 0x40 DUP3 ADD SWAP1 POP SWAP2 SWAP1 POP JUMP JUMPDEST PUSH1 0x0 PUSH1 0x20 DUP3 ADD SWAP1 POP DUP2 DUP2 SUB PUSH1 0x0 DUP4 ADD MSTORE PUSH2 0x1C5E DUP2 PUSH2 0x1C22 JUMP JUMPDEST SWAP1 POP SWAP2 SWAP1 POP JUMP JUMPDEST PUSH32 0x45524332303A207472616E7366657220746F20746865207A65726F2061646472 PUSH1 0x0 DUP3 ADD MSTORE PUSH32 0x6573730000000000000000000000000000000000000000000000000000000000 PUSH1 0x20 DUP3 ADD MSTORE POP JUMP JUMPDEST PUSH1 0x0 PUSH2 0x1CC1 PUSH1 0x23 DUP4 PUSH2 0x154B JUMP JUMPDEST SWAP2 POP PUSH2 0x1CCC DUP3 PUSH2 0x1C65 JUMP JUMPDEST PUSH1 0x40 DUP3 ADD SWAP1 POP SWAP2 SWAP1 POP JUMP JUMPDEST PUSH1 0x0 PUSH1 0x20 DUP3 ADD SWAP1 POP DUP2 DUP2 SUB PUSH1 0x0 DUP4 ADD MSTORE PUSH2 0x1CF0 DUP2 PUSH2 0x1CB4 JUMP JUMPDEST SWAP1 POP SWAP2 SWAP1 POP JUMP JUMPDEST PUSH32 0x45524332303A207472616E7366657220616D6F756E7420657863656564732062 PUSH1 0x0 DUP3 ADD MSTORE PUSH32 0x616C616E63650000000000000000000000000000000000000000000000000000 PUSH1 0x20 DUP3 ADD MSTORE POP JUMP JUMPDEST PUSH1 0x0 PUSH2 0x1D53 PUSH1 0x26 DUP4 PUSH2 0x154B JUMP JUMPDEST SWAP2 POP PUSH2 0x1D5E DUP3 PUSH2 0x1CF7 JUMP JUMPDEST PUSH1 0x40 DUP3 ADD SWAP1 POP SWAP2 SWAP1 POP JUMP JUMPDEST PUSH1 0x0 PUSH1 0x20 DUP3 ADD SWAP1 POP DUP2 DUP2 SUB PUSH1 0x0 DUP4 ADD MSTORE PUSH2 0x1D82 DUP2 PUSH2 0x1D46 JUMP JUMPDEST SWAP1 POP SWAP2 SWAP1 POP JUMP JUMPDEST PUSH32 0x45524332303A206275726E2066726F6D20746865207A65726F20616464726573 PUSH1 0x0 DUP3 ADD MSTORE PUSH32 0x7300000000000000000000000000000000000000000000000000000000000000 PUSH1 0x20 DUP3 ADD MSTORE POP JUMP JUMPDEST PUSH1 0x0 PUSH2 0x1DE5 PUSH1 0x21 DUP4 PUSH2 0x154B JUMP JUMPDEST SWAP2 POP PUSH2 0x1DF0 DUP3 PUSH2 0x1D89 JUMP JUMPDEST PUSH1 0x40 DUP3 ADD SWAP1 POP SWAP2 SWAP1 POP JUMP JUMPDEST PUSH1 0x0 PUSH1 0x20 DUP3 ADD SWAP1 POP DUP2 DUP2 SUB PUSH1 0x0 DUP4 ADD MSTORE PUSH2 0x1E14 DUP2 PUSH2 0x1DD8 JUMP JUMPDEST SWAP1 POP SWAP2 SWAP1 POP JUMP JUMPDEST PUSH32 0x45524332303A206275726E20616D6F756E7420657863656564732062616C616E PUSH1 0x0 DUP3 ADD MSTORE PUSH32 0x6365000000000000000000000000000000000000000000000000000000000000 PUSH1 0x20 DUP3 ADD MSTORE POP JUMP JUMPDEST PUSH1 0x0 PUSH2 0x1E77 PUSH1 0x22 DUP4 PUSH2 0x154B JUMP JUMPDEST SWAP2 POP PUSH2 0x1E82 DUP3 PUSH2 0x1E1B JUMP JUMPDEST PUSH1 0x40 DUP3 ADD SWAP1 POP SWAP2 SWAP1 POP JUMP JUMPDEST PUSH1 0x0 PUSH1 0x20 DUP3 ADD SWAP1 POP DUP2 DUP2 SUB PUSH1 0x0 DUP4 ADD MSTORE PUSH2 0x1EA6 DUP2 PUSH2 0x1E6A JUMP JUMPDEST SWAP1 POP SWAP2 SWAP1 POP JUMP INVALID LOG2 PUSH5 0x6970667358 0x22 SLT KECCAK256 PUSH12 0x60300A59EC252966F7CC9546 EXTCODESIZE EXTCODEHASH SSTORE 0x4F 0xC6 MULMOD 0x21 CALLVALUE SHL CALLER EXP EQ GASLIMIT 0xE 0xB4 PUSH22 0x2ACB1864736F6C634300081600330000000000000000 "},"methodIdentifiers":{"ANNUAL_BURN_RATE()":"ae15a8f6","INITIAL_SUPPLY()":"2ff2e9dc","allowance(address,address)":"dd62ed3e","approve(address,uint256)":"095ea7b3","balanceOf(address)":"70a08231","burnIfNeeded()":"75bf4d6e","charity()":"934aa023","community()":"dc1fb5a5","decimals()":"313ce567","decreaseAllowance(address,uint256)":"a457c2d7","development()":"7b929c27","expansion()":"7fce0203","foundation()":"41fbb050","halfCommunityInitialTokens()":"d662321b","increaseAllowance(address,uint256)":"39509351","investors()":"8ac27f5f","lastBurnTimestamp()":"3d3d937d","legal()":"e377ac31","marketing()":"2d3e474a","name()":"06fdde03","symbol()":"95d89b41","teamRewardAfter3Years()":"d52d4834","timeOfContractCreation()":"67fea82e","totalSupply()":"18160ddd","transfer(address,uint256)":"a9059cbb","transferFrom(address,address,uint256)":"23b872dd"}}}}}