{
  "_format": "hh-sol-artifact-1",
  "contractName": "MarshaToken",
  "sourceName": "contracts/MarshaPlus.sol",
  "abi": [
    {
      "inputs": [
        {
          "internalType": "address",
          "name": "_community",
          "type": "address"
        },
        {
          "internalType": "address",
          "name": "_charity",
          "type": "address"
        },
        {
          "internalType": "address",
          "name": "_foundation",
          "type": "address"
        },
        {
          "internalType": "address",
          "name": "_development",
          "type": "address"
        },
        {
          "internalType": "address",
          "name": "_marketing",
          "type": "address"
        },
        {
          "internalType": "address",
          "name": "_investors",
          "type": "address"
        },
        {
          "internalType": "address",
          "name": "_legal",
          "type": "address"
        },
        {
          "internalType": "address",
          "name": "_expansion",
          "type": "address"
        }
      ],
      "stateMutability": "nonpayable",
      "type": "constructor"
    },
    {
      "anonymous": false,
      "inputs": [
        {
          "indexed": true,
          "internalType": "address",
          "name": "owner",
          "type": "address"
        },
        {
          "indexed": true,
          "internalType": "address",
          "name": "spender",
          "type": "address"
        },
        {
          "indexed": false,
          "internalType": "uint256",
          "name": "value",
          "type": "uint256"
        }
      ],
      "name": "Approval",
      "type": "event"
    },
    {
      "anonymous": false,
      "inputs": [
        {
          "indexed": true,
          "internalType": "address",
          "name": "from",
          "type": "address"
        },
        {
          "indexed": true,
          "internalType": "address",
          "name": "to",
          "type": "address"
        },
        {
          "indexed": false,
          "internalType": "uint256",
          "name": "value",
          "type": "uint256"
        }
      ],
      "name": "Transfer",
      "type": "event"
    },
    {
      "inputs": [],
      "name": "ANNUAL_BURN_RATE",
      "outputs": [
        {
          "internalType": "uint256",
          "name": "",
          "type": "uint256"
        }
      ],
      "stateMutability": "view",
      "type": "function"
    },
    {
      "inputs": [],
      "name": "INITIAL_SUPPLY",
      "outputs": [
        {
          "internalType": "uint256",
          "name": "",
          "type": "uint256"
        }
      ],
      "stateMutability": "view",
      "type": "function"
    },
    {
      "inputs": [
        {
          "internalType": "address",
          "name": "owner",
          "type": "address"
        },
        {
          "internalType": "address",
          "name": "spender",
          "type": "address"
        }
      ],
      "name": "allowance",
      "outputs": [
        {
          "internalType": "uint256",
          "name": "",
          "type": "uint256"
        }
      ],
      "stateMutability": "view",
      "type": "function"
    },
    {
      "inputs": [
        {
          "internalType": "address",
          "name": "spender",
          "type": "address"
        },
        {
          "internalType": "uint256",
          "name": "amount",
          "type": "uint256"
        }
      ],
      "name": "approve",
      "outputs": [
        {
          "internalType": "bool",
          "name": "",
          "type": "bool"
        }
      ],
      "stateMutability": "nonpayable",
      "type": "function"
    },
    {
      "inputs": [
        {
          "internalType": "address",
          "name": "account",
          "type": "address"
        }
      ],
      "name": "balanceOf",
      "outputs": [
        {
          "internalType": "uint256",
          "name": "",
          "type": "uint256"
        }
      ],
      "stateMutability": "view",
      "type": "function"
    },
    {
      "inputs": [],
      "name": "burnIfNeeded",
      "outputs": [],
      "stateMutability": "nonpayable",
      "type": "function"
    },
    {
      "inputs": [],
      "name": "charity",
      "outputs": [
        {
          "internalType": "address",
          "name": "",
          "type": "address"
        }
      ],
      "stateMutability": "view",
      "type": "function"
    },
    {
      "inputs": [],
      "name": "community",
      "outputs": [
        {
          "internalType": "address",
          "name": "",
          "type": "address"
        }
      ],
      "stateMutability": "view",
      "type": "function"
    },
    {
      "inputs": [],
      "name": "decimals",
      "outputs": [
        {
          "internalType": "uint8",
          "name": "",
          "type": "uint8"
        }
      ],
      "stateMutability": "view",
      "type": "function"
    },
    {
      "inputs": [
        {
          "internalType": "address",
          "name": "spender",
          "type": "address"
        },
        {
          "internalType": "uint256",
          "name": "subtractedValue",
          "type": "uint256"
        }
      ],
      "name": "decreaseAllowance",
      "outputs": [
        {
          "internalType": "bool",
          "name": "",
          "type": "bool"
        }
      ],
      "stateMutability": "nonpayable",
      "type": "function"
    },
    {
      "inputs": [],
      "name": "development",
      "outputs": [
        {
          "internalType": "address",
          "name": "",
          "type": "address"
        }
      ],
      "stateMutability": "view",
      "type": "function"
    },
    {
      "inputs": [],
      "name": "expansion",
      "outputs": [
        {
          "internalType": "address",
          "name": "",
          "type": "address"
        }
      ],
      "stateMutability": "view",
      "type": "function"
    },
    {
      "inputs": [],
      "name": "foundation",
      "outputs": [
        {
          "internalType": "address",
          "name": "",
          "type": "address"
        }
      ],
      "stateMutability": "view",
      "type": "function"
    },
    {
      "inputs": [],
      "name": "halfCommunityInitialTokens",
      "outputs": [
        {
          "internalType": "uint256",
          "name": "",
          "type": "uint256"
        }
      ],
      "stateMutability": "view",
      "type": "function"
    },
    {
      "inputs": [
        {
          "internalType": "address",
          "name": "spender",
          "type": "address"
        },
        {
          "internalType": "uint256",
          "name": "addedValue",
          "type": "uint256"
        }
      ],
      "name": "increaseAllowance",
      "outputs": [
        {
          "internalType": "bool",
          "name": "",
          "type": "bool"
        }
      ],
      "stateMutability": "nonpayable",
      "type": "function"
    },
    {
      "inputs": [],
      "name": "investors",
      "outputs": [
        {
          "internalType": "address",
          "name": "",
          "type": "address"
        }
      ],
      "stateMutability": "view",
      "type": "function"
    },
    {
      "inputs": [],
      "name": "lastBurnTimestamp",
      "outputs": [
        {
          "internalType": "uint256",
          "name": "",
          "type": "uint256"
        }
      ],
      "stateMutability": "view",
      "type": "function"
    },
    {
      "inputs": [],
      "name": "legal",
      "outputs": [
        {
          "internalType": "address",
          "name": "",
          "type": "address"
        }
      ],
      "stateMutability": "view",
      "type": "function"
    },
    {
      "inputs": [],
      "name": "marketing",
      "outputs": [
        {
          "internalType": "address",
          "name": "",
          "type": "address"
        }
      ],
      "stateMutability": "view",
      "type": "function"
    },
    {
      "inputs": [],
      "name": "name",
      "outputs": [
        {
          "internalType": "string",
          "name": "",
          "type": "string"
        }
      ],
      "stateMutability": "view",
      "type": "function"
    },
    {
      "inputs": [],
      "name": "symbol",
      "outputs": [
        {
          "internalType": "string",
          "name": "",
          "type": "string"
        }
      ],
      "stateMutability": "view",
      "type": "function"
    },
    {
      "inputs": [],
      "name": "teamRewardAfter3Years",
      "outputs": [],
      "stateMutability": "nonpayable",
      "type": "function"
    },
    {
      "inputs": [],
      "name": "timeOfContractCreation",
      "outputs": [
        {
          "internalType": "uint256",
          "name": "",
          "type": "uint256"
        }
      ],
      "stateMutability": "view",
      "type": "function"
    },
    {
      "inputs": [],
      "name": "totalSupply",
      "outputs": [
        {
          "internalType": "uint256",
          "name": "",
          "type": "uint256"
        }
      ],
      "stateMutability": "view",
      "type": "function"
    },
    {
      "inputs": [
        {
          "internalType": "address",
          "name": "to",
          "type": "address"
        },
        {
          "internalType": "uint256",
          "name": "amount",
          "type": "uint256"
        }
      ],
      "name": "transfer",
      "outputs": [
        {
          "internalType": "bool",
          "name": "",
          "type": "bool"
        }
      ],
      "stateMutability": "nonpayable",
      "type": "function"
    },
    {
      "inputs": [
        {
          "internalType": "address",
          "name": "from",
          "type": "address"
        },
        {
          "internalType": "address",
          "name": "to",
          "type": "address"
        },
        {
          "internalType": "uint256",
          "name": "amount",
          "type": "uint256"
        }
      ],
      "name": "transferFrom",
      "outputs": [
        {
          "internalType": "bool",
          "name": "",
          "type": "bool"
        }
      ],
      "stateMutability": "nonpayable",
      "type": "function"
    }
  ],
  "bytecode": "0x6101a06040523480156200001257600080fd5b506040516200370038038062003700833981810160405281019062000038919062000f3c565b6040518060400160405280600781526020017f4d41525348412b000000000000000000000000000000000000000000000000008152506040518060400160405280600381526020017f4d534100000000000000000000000000000000000000000000000000000000008152508160039081620000b591906200127f565b508060049081620000c791906200127f565b505050620000e6675614c1734d3f72ae60c01b62000a7f60201b60201c565b6200010267d5883e1716be35fd60c01b62000a7f60201b60201c565b6200011e67d091d273ccfbc94560c01b62000a7f60201b60201c565b6200013a67486ed15d5781869b60c01b62000a7f60201b60201c565b600073ffffffffffffffffffffffffffffffffffffffff168873ffffffffffffffffffffffffffffffffffffffff1614158015620001a55750600073ffffffffffffffffffffffffffffffffffffffff168773ffffffffffffffffffffffffffffffffffffffff1614155b8015620001df5750600073ffffffffffffffffffffffffffffffffffffffff168673ffffffffffffffffffffffffffffffffffffffff1614155b8015620002195750600073ffffffffffffffffffffffffffffffffffffffff168573ffffffffffffffffffffffffffffffffffffffff1614155b8015620002535750600073ffffffffffffffffffffffffffffffffffffffff168473ffffffffffffffffffffffffffffffffffffffff1614155b80156200028d5750600073ffffffffffffffffffffffffffffffffffffffff168373ffffffffffffffffffffffffffffffffffffffff1614155b8015620002c75750600073ffffffffffffffffffffffffffffffffffffffff168273ffffffffffffffffffffffffffffffffffffffff1614155b8015620003015750600073ffffffffffffffffffffffffffffffffffffffff168173ffffffffffffffffffffffffffffffffffffffff1614155b62000343576040517f08c379a00000000000000000000000000000000000000000000000000000000081526004016200033a90620013c7565b60405180910390fd5b6200035f671a2cfedb048650a460c01b62000a7f60201b60201c565b6200037b677107fe1aa26a01d860c01b62000a7f60201b60201c565b8773ffffffffffffffffffffffffffffffffffffffff1660808173ffffffffffffffffffffffffffffffffffffffff1681525050620003cb677e370915c3d679c360c01b62000a7f60201b60201c565b8673ffffffffffffffffffffffffffffffffffffffff1660a08173ffffffffffffffffffffffffffffffffffffffff16815250506200041b6779cb13da2f5df23560c01b62000a7f60201b60201c565b8573ffffffffffffffffffffffffffffffffffffffff1660c08173ffffffffffffffffffffffffffffffffffffffff16815250506200046b67f957b8099616b12660c01b62000a7f60201b60201c565b8473ffffffffffffffffffffffffffffffffffffffff1660e08173ffffffffffffffffffffffffffffffffffffffff1681525050620004bb67e581530b49a272fe60c01b62000a7f60201b60201c565b8373ffffffffffffffffffffffffffffffffffffffff166101008173ffffffffffffffffffffffffffffffffffffffff16815250506200050c67fc241fd399891ff760c01b62000a7f60201b60201c565b8273ffffffffffffffffffffffffffffffffffffffff166101208173ffffffffffffffffffffffffffffffffffffffff16815250506200055d678e157fe651893d5c60c01b62000a7f60201b60201c565b8173ffffffffffffffffffffffffffffffffffffffff166101408173ffffffffffffffffffffffffffffffffffffffff1681525050620005ae67065c07c554a7d5cb60c01b62000a7f60201b60201c565b8073ffffffffffffffffffffffffffffffffffffffff166101608173ffffffffffffffffffffffffffffffffffffffff1681525050620005ff6702729d91e7d8d2a760c01b62000a7f60201b60201c565b426005819055506200062267199e8d50d124691860c01b62000a7f60201b60201c565b42600681905550620006456777c7b67572cc20ff60c01b62000a7f60201b60201c565b62000661679cbeac42f19fd73260c01b62000a7f60201b60201c565b6200067f306b19d971e4fe8401e74000000062000a8260201b60201c565b6200069b67e5625c1943e14b7b60c01b62000a7f60201b60201c565b620006b7676391def439d1d20160c01b62000a7f60201b60201c565b620006f430608051606460236b19d971e4fe8401e740000000620006dc919062001418565b620006e8919062001492565b62000bef60201b60201c565b620007106790f2b4a1c54b3ae160c01b62000a7f60201b60201c565b60026200072560805162000e8060201b60201c565b62000731919062001492565b610180818152505062000755678ee9e1c9ca813a8260c01b62000a7f60201b60201c565b6200077167d55de28b7f04a31560c01b62000a7f60201b60201c565b620007ae3060a051606460056b19d971e4fe8401e74000000062000796919062001418565b620007a2919062001492565b62000bef60201b60201c565b620007ca67d87c8d0e628553fe60c01b62000a7f60201b60201c565b620007e6679d92592e34820afb60c01b62000a7f60201b60201c565b620008233060c051606460056b19d971e4fe8401e7400000006200080b919062001418565b62000817919062001492565b62000bef60201b60201c565b6200083f6733dcfac452faf20460c01b62000a7f60201b60201c565b6200085b67cb3963a7006d500b60c01b62000a7f60201b60201c565b620008983060e051606460056b19d971e4fe8401e74000000062000880919062001418565b6200088c919062001492565b62000bef60201b60201c565b620008b4675d3a46746539f57a60c01b62000a7f60201b60201c565b620008d06704ddd4571e16769a60c01b62000a7f60201b60201c565b6200090e3061010051606460056b19d971e4fe8401e740000000620008f6919062001418565b62000902919062001492565b62000bef60201b60201c565b6200092a673cf3ffddec18afcd60c01b62000a7f60201b60201c565b6200094667d016e7f13e1b758d60c01b62000a7f60201b60201c565b620009843061012051606460056b19d971e4fe8401e7400000006200096c919062001418565b62000978919062001492565b62000bef60201b60201c565b620009a0678fd489cddc1f687060c01b62000a7f60201b60201c565b620009bc67a1350c89de44025160c01b62000a7f60201b60201c565b620009fb30610140516103e860196b19d971e4fe8401e740000000620009e3919062001418565b620009ef919062001492565b62000bef60201b60201c565b62000a1767dd6a0efdcfdec68160c01b62000a7f60201b60201c565b62000a3367a3b286e3639717aa60c01b62000a7f60201b60201c565b62000a713061016051606460016b19d971e4fe8401e74000000062000a59919062001418565b62000a65919062001492565b62000bef60201b60201c565b50505050505050506200176d565b50565b600073ffffffffffffffffffffffffffffffffffffffff168273ffffffffffffffffffffffffffffffffffffffff160362000af4576040517f08c379a000000000000000000000000000000000000000000000000000000000815260040162000aeb906200151a565b60405180910390fd5b62000b086000838362000ec860201b60201c565b806002600082825462000b1c91906200153c565b92505081905550806000808473ffffffffffffffffffffffffffffffffffffffff1673ffffffffffffffffffffffffffffffffffffffff168152602001908152602001600020600082825401925050819055508173ffffffffffffffffffffffffffffffffffffffff16600073ffffffffffffffffffffffffffffffffffffffff167fddf252ad1be2c89b69c2b068fc378daa952ba7f163c4a11628f55a4df523b3ef8360405162000bcf919062001588565b60405180910390a362000beb6000838362000ecd60201b60201c565b5050565b600073ffffffffffffffffffffffffffffffffffffffff168373ffffffffffffffffffffffffffffffffffffffff160362000c61576040517f08c379a000000000000000000000000000000000000000000000000000000000815260040162000c58906200161b565b60405180910390fd5b600073ffffffffffffffffffffffffffffffffffffffff168273ffffffffffffffffffffffffffffffffffffffff160362000cd3576040517f08c379a000000000000000000000000000000000000000000000000000000000815260040162000cca90620016b3565b60405180910390fd5b62000ce683838362000ec860201b60201c565b60008060008573ffffffffffffffffffffffffffffffffffffffff1673ffffffffffffffffffffffffffffffffffffffff1681526020019081526020016000205490508181101562000d6f576040517f08c379a000000000000000000000000000000000000000000000000000000000815260040162000d66906200174b565b60405180910390fd5b8181036000808673ffffffffffffffffffffffffffffffffffffffff1673ffffffffffffffffffffffffffffffffffffffff16815260200190815260200160002081905550816000808573ffffffffffffffffffffffffffffffffffffffff1673ffffffffffffffffffffffffffffffffffffffff168152602001908152602001600020600082825401925050819055508273ffffffffffffffffffffffffffffffffffffffff168473ffffffffffffffffffffffffffffffffffffffff167fddf252ad1be2c89b69c2b068fc378daa952ba7f163c4a11628f55a4df523b3ef8460405162000e5f919062001588565b60405180910390a362000e7a84848462000ecd60201b60201c565b50505050565b60008060008373ffffffffffffffffffffffffffffffffffffffff1673ffffffffffffffffffffffffffffffffffffffff168152602001908152602001600020549050919050565b505050565b505050565b600080fd5b600073ffffffffffffffffffffffffffffffffffffffff82169050919050565b600062000f048262000ed7565b9050919050565b62000f168162000ef7565b811462000f2257600080fd5b50565b60008151905062000f368162000f0b565b92915050565b600080600080600080600080610100898b03121562000f605762000f5f62000ed2565b5b600062000f708b828c0162000f25565b985050602062000f838b828c0162000f25565b975050604062000f968b828c0162000f25565b965050606062000fa98b828c0162000f25565b955050608062000fbc8b828c0162000f25565b94505060a062000fcf8b828c0162000f25565b93505060c062000fe28b828c0162000f25565b92505060e062000ff58b828c0162000f25565b9150509295985092959890939650565b600081519050919050565b7f4e487b7100000000000000000000000000000000000000000000000000000000600052604160045260246000fd5b7f4e487b7100000000000000000000000000000000000000000000000000000000600052602260045260246000fd5b600060028204905060018216806200108757607f821691505b6020821081036200109d576200109c6200103f565b5b50919050565b60008190508160005260206000209050919050565b60006020601f8301049050919050565b600082821b905092915050565b600060088302620011077fffffffffffffffffffffffffffffffffffffffffffffffffffffffffffffffff82620010c8565b620011138683620010c8565b95508019841693508086168417925050509392505050565b6000819050919050565b6000819050919050565b6000620011606200115a62001154846200112b565b62001135565b6200112b565b9050919050565b6000819050919050565b6200117c836200113f565b620011946200118b8262001167565b848454620010d5565b825550505050565b600090565b620011ab6200119c565b620011b881848462001171565b505050565b5b81811015620011e057620011d4600082620011a1565b600181019050620011be565b5050565b601f8211156200122f57620011f981620010a3565b6200120484620010b8565b8101602085101562001214578190505b6200122c6200122385620010b8565b830182620011bd565b50505b505050565b600082821c905092915050565b6000620012546000198460080262001234565b1980831691505092915050565b60006200126f838362001241565b9150826002028217905092915050565b6200128a8262001005565b67ffffffffffffffff811115620012a657620012a562001010565b5b620012b282546200106e565b620012bf828285620011e4565b600060209050601f831160018114620012f75760008415620012e2578287015190505b620012ee858262001261565b8655506200135e565b601f1984166200130786620010a3565b60005b8281101562001331578489015182556001820191506020850194506020810190506200130a565b868310156200135157848901516200134d601f89168262001241565b8355505b6001600288020188555050505b505050505050565b600082825260208201905092915050565b7f496e76616c696420616464726573730000000000000000000000000000000000600082015250565b6000620013af600f8362001366565b9150620013bc8262001377565b602082019050919050565b60006020820190508181036000830152620013e281620013a0565b9050919050565b7f4e487b7100000000000000000000000000000000000000000000000000000000600052601160045260246000fd5b600062001425826200112b565b915062001432836200112b565b925082820262001442816200112b565b915082820484148315176200145c576200145b620013e9565b5b5092915050565b7f4e487b7100000000000000000000000000000000000000000000000000000000600052601260045260246000fd5b60006200149f826200112b565b9150620014ac836200112b565b925082620014bf57620014be62001463565b5b828204905092915050565b7f45524332303a206d696e7420746f20746865207a65726f206164647265737300600082015250565b600062001502601f8362001366565b91506200150f82620014ca565b602082019050919050565b600060208201905081810360008301526200153581620014f3565b9050919050565b600062001549826200112b565b915062001556836200112b565b9250828201905080821115620015715762001570620013e9565b5b92915050565b62001582816200112b565b82525050565b60006020820190506200159f600083018462001577565b92915050565b7f45524332303a207472616e736665722066726f6d20746865207a65726f20616460008201527f6472657373000000000000000000000000000000000000000000000000000000602082015250565b60006200160360258362001366565b91506200161082620015a5565b604082019050919050565b600060208201905081810360008301526200163681620015f4565b9050919050565b7f45524332303a207472616e7366657220746f20746865207a65726f206164647260008201527f6573730000000000000000000000000000000000000000000000000000000000602082015250565b60006200169b60238362001366565b9150620016a8826200163d565b604082019050919050565b60006020820190508181036000830152620016ce816200168c565b9050919050565b7f45524332303a207472616e7366657220616d6f756e742065786365656473206260008201527f616c616e63650000000000000000000000000000000000000000000000000000602082015250565b60006200173360268362001366565b91506200174082620016d5565b604082019050919050565b60006020820190508181036000830152620017668162001724565b9050919050565b60805160a05160c05160e0516101005161012051610140516101605161018051611ee36200181d600039600081816107290152610da20152600081816108b60152610d3b015260008181610cc30152610e71015260006108da0152600081816105e50152610c4c0152600081816108920152610bd501526000818161065f0152610b5e0152600081816108fe0152610ae701526000818161074d015281816108320152610dc60152611ee36000f3fe608060405234801561001057600080fd5b506004361061018e5760003560e01c80637b929c27116100de578063a9059cbb11610097578063d662321b11610071578063d662321b1461046b578063dc1fb5a514610489578063dd62ed3e146104a7578063e377ac31146104d75761018e565b8063a9059cbb14610413578063ae15a8f614610443578063d52d4834146104615761018e565b80637b929c271461034d5780637fce02031461036b5780638ac27f5f14610389578063934aa023146103a757806395d89b41146103c5578063a457c2d7146103e35761018e565b8063313ce5671161014b57806341fbb0501161012557806341fbb050146102d757806367fea82e146102f557806370a082311461031357806375bf4d6e146103435761018e565b8063313ce5671461026b57806339509351146102895780633d3d937d146102b95761018e565b806306fdde0314610193578063095ea7b3146101b157806318160ddd146101e157806323b872dd146101ff5780632d3e474a1461022f5780632ff2e9dc1461024d575b600080fd5b61019b6104f5565b6040516101a891906115d0565b60405180910390f35b6101cb60048036038101906101c6919061168b565b610587565b6040516101d891906116e6565b60405180910390f35b6101e96105aa565b6040516101f69190611710565b60405180910390f35b6102196004803603810190610214919061172b565b6105b4565b60405161022691906116e6565b60405180910390f35b6102376105e3565b604051610244919061178d565b60405180910390f35b610255610607565b6040516102629190611710565b60405180910390f35b610273610617565b60405161028091906117c4565b60405180910390f35b6102a3600480360381019061029e919061168b565b610620565b6040516102b091906116e6565b60405180910390f35b6102c1610657565b6040516102ce9190611710565b60405180910390f35b6102df61065d565b6040516102ec919061178d565b60405180910390f35b6102fd610681565b60405161030a9190611710565b60405180910390f35b61032d600480360381019061032891906117df565b610687565b60405161033a9190611710565b60405180910390f35b61034b6106cf565b005b610355610890565b604051610362919061178d565b60405180910390f35b6103736108b4565b604051610380919061178d565b60405180910390f35b6103916108d8565b60405161039e919061178d565b60405180910390f35b6103af6108fc565b6040516103bc919061178d565b60405180910390f35b6103cd610920565b6040516103da91906115d0565b60405180910390f35b6103fd60048036038101906103f8919061168b565b6109b2565b60405161040a91906116e6565b60405180910390f35b61042d6004803603810190610428919061168b565b610a29565b60405161043a91906116e6565b60405180910390f35b61044b610a4c565b6040516104589190611710565b60405180910390f35b610469610a51565b005b610473610da0565b6040516104809190611710565b60405180910390f35b610491610dc4565b60405161049e919061178d565b60405180910390f35b6104c160048036038101906104bc919061180c565b610de8565b6040516104ce9190611710565b60405180910390f35b6104df610e6f565b6040516104ec919061178d565b60405180910390f35b6060600380546105049061187b565b80601f01602080910402602001604051908101604052809291908181526020018280546105309061187b565b801561057d5780601f106105525761010080835404028352916020019161057d565b820191906000526020600020905b81548152906001019060200180831161056057829003601f168201915b5050505050905090565b600080610592610e93565b905061059f818585610e9b565b600191505092915050565b6000600254905090565b6000806105bf610e93565b90506105cc858285611064565b6105d78585856110f0565b60019150509392505050565b7f000000000000000000000000000000000000000000000000000000000000000081565b6b19d971e4fe8401e74000000081565b60006012905090565b60008061062b610e93565b905061064c81858561063d8589610de8565b61064791906118db565b610e9b565b600191505092915050565b60055481565b7f000000000000000000000000000000000000000000000000000000000000000081565b60065481565b60008060008373ffffffffffffffffffffffffffffffffffffffff1673ffffffffffffffffffffffffffffffffffffffff168152602001908152602001600020549050919050565b6106e367a3e615225dea394560c01b611366565b6106f767a0e2e4d5fdcb815c60c01b611366565b61070b67ed43b28e9341bfdd60c01b611366565b6301e1338060055461071d91906118db565b421015801561077357507f00000000000000000000000000000000000000000000000000000000000000006107717f0000000000000000000000000000000000000000000000000000000000000000610687565b115b156108795761078c67cfe175c27984e3ee60c01b611366565b6107a067e465bb0e23ae1aed60c01b611366565b6107b4676daca51dc85d88c660c01b611366565b60006107be6105aa565b90506107d467ace93f48f63b0eca60c01b611366565b6107e8672d532abb39bf2c2560c01b611366565b600060646003836107f9919061190f565b6108039190611980565b90506108196712cdaab2836bbf5260c01b611366565b61082d677f171d75ed087ae960c01b611366565b6108577f000000000000000000000000000000000000000000000000000000000000000082611369565b61086b6715a1232040478bf160c01b611366565b42600581905550505061088e565b61088d676abde794d0f078c560c01b611366565b5b565b7f000000000000000000000000000000000000000000000000000000000000000081565b7f000000000000000000000000000000000000000000000000000000000000000081565b7f000000000000000000000000000000000000000000000000000000000000000081565b7f000000000000000000000000000000000000000000000000000000000000000081565b60606004805461092f9061187b565b80601f016020809104026020016040519081016040528092919081815260200182805461095b9061187b565b80156109a85780601f1061097d576101008083540402835291602001916109a8565b820191906000526020600020905b81548152906001019060200180831161098b57829003601f168201915b5050505050905090565b6000806109bd610e93565b905060006109cb8286610de8565b905083811015610a10576040517f08c379a0000000000000000000000000000000000000000000000000000000008152600401610a0790611a23565b60405180910390fd5b610a1d8286868403610e9b565b60019250505092915050565b600080610a34610e93565b9050610a418185856110f0565b600191505092915050565b600381565b610a6567ac47cf26f88795c960c01b611366565b610a7967ae746b02326d9c5c60c01b611366565b610a8d675852138f210ec42d60c01b611366565b6305a39a80600654610a9f91906118db565b4210610d8957610ab967df2498de0ba89ff360c01b611366565b610acd671f0e02e72a00239660c01b611366565b610ae167d8afa81e4adb123860c01b611366565b610b30307f0000000000000000000000000000000000000000000000000000000000000000606460146b19d971e4fe8401e740000000610b21919061190f565b610b2b9190611980565b6110f0565b610b4467a8aebd8d0009eddf60c01b611366565b610b58676a0c36efc89c95a360c01b611366565b610ba7307f0000000000000000000000000000000000000000000000000000000000000000606460056b19d971e4fe8401e740000000610b98919061190f565b610ba29190611980565b6110f0565b610bbb67b2dff89af899b62060c01b611366565b610bcf67eda9f67ef04948b560c01b611366565b610c1e307f0000000000000000000000000000000000000000000000000000000000000000606460056b19d971e4fe8401e740000000610c0f919061190f565b610c199190611980565b6110f0565b610c326710f9c24227cdce4160c01b611366565b610c46670a7d4d28755f337560c01b611366565b610c95307f0000000000000000000000000000000000000000000000000000000000000000606460036b19d971e4fe8401e740000000610c86919061190f565b610c909190611980565b6110f0565b610ca96705a5fa34c8f16b8b60c01b611366565b610cbd67d126fa5198dfc84260c01b611366565b610d0d307f00000000000000000000000000000000000000000000000000000000000000006103e860196b19d971e4fe8401e740000000610cfe919061190f565b610d089190611980565b6110f0565b610d21671553613318a999be60c01b611366565b610d35674ded80b9be91d2dc60c01b611366565b610d84307f0000000000000000000000000000000000000000000000000000000000000000606460016b19d971e4fe8401e740000000610d75919061190f565b610d7f9190611980565b6110f0565b610d9e565b610d9d67253233425eae5e5b60c01b611366565b5b565b7f000000000000000000000000000000000000000000000000000000000000000081565b7f000000000000000000000000000000000000000000000000000000000000000081565b6000600160008473ffffffffffffffffffffffffffffffffffffffff1673ffffffffffffffffffffffffffffffffffffffff16815260200190815260200160002060008373ffffffffffffffffffffffffffffffffffffffff1673ffffffffffffffffffffffffffffffffffffffff16815260200190815260200160002054905092915050565b7f000000000000000000000000000000000000000000000000000000000000000081565b600033905090565b600073ffffffffffffffffffffffffffffffffffffffff168373ffffffffffffffffffffffffffffffffffffffff1603610f0a576040517f08c379a0000000000000000000000000000000000000000000000000000000008152600401610f0190611ab5565b60405180910390fd5b600073ffffffffffffffffffffffffffffffffffffffff168273ffffffffffffffffffffffffffffffffffffffff1603610f79576040517f08c379a0000000000000000000000000000000000000000000000000000000008152600401610f7090611b47565b60405180910390fd5b80600160008573ffffffffffffffffffffffffffffffffffffffff1673ffffffffffffffffffffffffffffffffffffffff16815260200190815260200160002060008473ffffffffffffffffffffffffffffffffffffffff1673ffffffffffffffffffffffffffffffffffffffff168152602001908152602001600020819055508173ffffffffffffffffffffffffffffffffffffffff168373ffffffffffffffffffffffffffffffffffffffff167f8c5be1e5ebec7d5bd14f71427d1e84f3dd0314c0f7b2291e5b200ac8c7c3b925836040516110579190611710565b60405180910390a3505050565b60006110708484610de8565b90507fffffffffffffffffffffffffffffffffffffffffffffffffffffffffffffffff81146110ea57818110156110dc576040517f08c379a00000000000000000000000000000000000000000000000000000000081526004016110d390611bb3565b60405180910390fd5b6110e98484848403610e9b565b5b50505050565b600073ffffffffffffffffffffffffffffffffffffffff168373ffffffffffffffffffffffffffffffffffffffff160361115f576040517f08c379a000000000000000000000000000000000000000000000000000000000815260040161115690611c45565b60405180910390fd5b600073ffffffffffffffffffffffffffffffffffffffff168273ffffffffffffffffffffffffffffffffffffffff16036111ce576040517f08c379a00000000000000000000000000000000000000000000000000000000081526004016111c590611cd7565b60405180910390fd5b6111d9838383611536565b60008060008573ffffffffffffffffffffffffffffffffffffffff1673ffffffffffffffffffffffffffffffffffffffff1681526020019081526020016000205490508181101561125f576040517f08c379a000000000000000000000000000000000000000000000000000000000815260040161125690611d69565b60405180910390fd5b8181036000808673ffffffffffffffffffffffffffffffffffffffff1673ffffffffffffffffffffffffffffffffffffffff16815260200190815260200160002081905550816000808573ffffffffffffffffffffffffffffffffffffffff1673ffffffffffffffffffffffffffffffffffffffff168152602001908152602001600020600082825401925050819055508273ffffffffffffffffffffffffffffffffffffffff168473ffffffffffffffffffffffffffffffffffffffff167fddf252ad1be2c89b69c2b068fc378daa952ba7f163c4a11628f55a4df523b3ef8460405161134d9190611710565b60405180910390a361136084848461153b565b50505050565b50565b600073ffffffffffffffffffffffffffffffffffffffff168273ffffffffffffffffffffffffffffffffffffffff16036113d8576040517f08c379a00000000000000000000000000000000000000000000000000000000081526004016113cf90611dfb565b60405180910390fd5b6113e482600083611536565b60008060008473ffffffffffffffffffffffffffffffffffffffff1673ffffffffffffffffffffffffffffffffffffffff1681526020019081526020016000205490508181101561146a576040517f08c379a000000000000000000000000000000000000000000000000000000000815260040161146190611e8d565b60405180910390fd5b8181036000808573ffffffffffffffffffffffffffffffffffffffff1673ffffffffffffffffffffffffffffffffffffffff1681526020019081526020016000208190555081600260008282540392505081905550600073ffffffffffffffffffffffffffffffffffffffff168373ffffffffffffffffffffffffffffffffffffffff167fddf252ad1be2c89b69c2b068fc378daa952ba7f163c4a11628f55a4df523b3ef8460405161151d9190611710565b60405180910390a36115318360008461153b565b505050565b505050565b505050565b600081519050919050565b600082825260208201905092915050565b60005b8381101561157a57808201518184015260208101905061155f565b60008484015250505050565b6000601f19601f8301169050919050565b60006115a282611540565b6115ac818561154b565b93506115bc81856020860161155c565b6115c581611586565b840191505092915050565b600060208201905081810360008301526115ea8184611597565b905092915050565b600080fd5b600073ffffffffffffffffffffffffffffffffffffffff82169050919050565b6000611622826115f7565b9050919050565b61163281611617565b811461163d57600080fd5b50565b60008135905061164f81611629565b92915050565b6000819050919050565b61166881611655565b811461167357600080fd5b50565b6000813590506116858161165f565b92915050565b600080604083850312156116a2576116a16115f2565b5b60006116b085828601611640565b92505060206116c185828601611676565b9150509250929050565b60008115159050919050565b6116e0816116cb565b82525050565b60006020820190506116fb60008301846116d7565b92915050565b61170a81611655565b82525050565b60006020820190506117256000830184611701565b92915050565b600080600060608486031215611744576117436115f2565b5b600061175286828701611640565b935050602061176386828701611640565b925050604061177486828701611676565b9150509250925092565b61178781611617565b82525050565b60006020820190506117a2600083018461177e565b92915050565b600060ff82169050919050565b6117be816117a8565b82525050565b60006020820190506117d960008301846117b5565b92915050565b6000602082840312156117f5576117f46115f2565b5b600061180384828501611640565b91505092915050565b60008060408385031215611823576118226115f2565b5b600061183185828601611640565b925050602061184285828601611640565b9150509250929050565b7f4e487b7100000000000000000000000000000000000000000000000000000000600052602260045260246000fd5b6000600282049050600182168061189357607f821691505b6020821081036118a6576118a561184c565b5b50919050565b7f4e487b7100000000000000000000000000000000000000000000000000000000600052601160045260246000fd5b60006118e682611655565b91506118f183611655565b9250828201905080821115611909576119086118ac565b5b92915050565b600061191a82611655565b915061192583611655565b925082820261193381611655565b9150828204841483151761194a576119496118ac565b5b5092915050565b7f4e487b7100000000000000000000000000000000000000000000000000000000600052601260045260246000fd5b600061198b82611655565b915061199683611655565b9250826119a6576119a5611951565b5b828204905092915050565b7f45524332303a2064656372656173656420616c6c6f77616e63652062656c6f7760008201527f207a65726f000000000000000000000000000000000000000000000000000000602082015250565b6000611a0d60258361154b565b9150611a18826119b1565b604082019050919050565b60006020820190508181036000830152611a3c81611a00565b9050919050565b7f45524332303a20617070726f76652066726f6d20746865207a65726f2061646460008201527f7265737300000000000000000000000000000000000000000000000000000000602082015250565b6000611a9f60248361154b565b9150611aaa82611a43565b604082019050919050565b60006020820190508181036000830152611ace81611a92565b9050919050565b7f45524332303a20617070726f766520746f20746865207a65726f20616464726560008201527f7373000000000000000000000000000000000000000000000000000000000000602082015250565b6000611b3160228361154b565b9150611b3c82611ad5565b604082019050919050565b60006020820190508181036000830152611b6081611b24565b9050919050565b7f45524332303a20696e73756666696369656e7420616c6c6f77616e6365000000600082015250565b6000611b9d601d8361154b565b9150611ba882611b67565b602082019050919050565b60006020820190508181036000830152611bcc81611b90565b9050919050565b7f45524332303a207472616e736665722066726f6d20746865207a65726f20616460008201527f6472657373000000000000000000000000000000000000000000000000000000602082015250565b6000611c2f60258361154b565b9150611c3a82611bd3565b604082019050919050565b60006020820190508181036000830152611c5e81611c22565b9050919050565b7f45524332303a207472616e7366657220746f20746865207a65726f206164647260008201527f6573730000000000000000000000000000000000000000000000000000000000602082015250565b6000611cc160238361154b565b9150611ccc82611c65565b604082019050919050565b60006020820190508181036000830152611cf081611cb4565b9050919050565b7f45524332303a207472616e7366657220616d6f756e742065786365656473206260008201527f616c616e63650000000000000000000000000000000000000000000000000000602082015250565b6000611d5360268361154b565b9150611d5e82611cf7565b604082019050919050565b60006020820190508181036000830152611d8281611d46565b9050919050565b7f45524332303a206275726e2066726f6d20746865207a65726f2061646472657360008201527f7300000000000000000000000000000000000000000000000000000000000000602082015250565b6000611de560218361154b565b9150611df082611d89565b604082019050919050565b60006020820190508181036000830152611e1481611dd8565b9050919050565b7f45524332303a206275726e20616d6f756e7420657863656564732062616c616e60008201527f6365000000000000000000000000000000000000000000000000000000000000602082015250565b6000611e7760228361154b565b9150611e8282611e1b565b604082019050919050565b60006020820190508181036000830152611ea681611e6a565b905091905056fea26469706673582212206b60300a59ec252966f7cc95463b3f554fc60921341b330a14450eb4752acb1864736f6c63430008160033",
  "linkReferences": {},
  "deployedLinkReferences": {}
}